:100000000C941A040C9442040C9442040C94420480
:100010000C9442040C9442040C9442040C94420448
:100020000C9442040C9442040C9442040C94420438
:100030000C9442040C9442040C9442040C94420428
:100040000C9454100C9442040C9442040C944204FA
:100050000C9442040C9442040C9442040C94420408
:100060000C940E090C9442041212231239125112EC
:10007000231239126E1223123912751223123912F9
:100080007512231284129C12000000002300260027
:100090002900FFE0FFD1AFFF32FFD0FFFEFFE0FFFE
:1000A000D1AEFFD0FFFEFFE0FFD11000FFFEFFD07A
:1000B000FFE0FFC1FFD1AED580A83FD300408D1433
:1000C0002000A1C8DA1281CFD9F1DB402EA4A6AF5F
:1000D000FFD0FFFE01060A00FE0701360268207FFE
:1000E000FE08FE07FE0A006022176780808080807D
:1000F0000080163363A0A0A00257675050F850F854
:1001000050500257672070A070287020025767482F
:10011000A8502050A89002576740A0A040A890681F
:1001200026136380808012376720408080804020C3
:10013000123767804020202040800355658850F8A2
:1001400050880355652020F82020113363604080DB
:10015000055161F811336340E04002576708081009
:10016000204080800257672050888888502002579E
:10017000672060A0202020F8025767708808304070
:1001800080F8025767F80810300888700257671027
:10019000305090F81010025767F880B0C808887087
:1001A000025767304080B0C88870025767F808105F
:1001B0001020404002576770888870888870025706
:1001C000677088986808106011376740E040004009
:1001D000E04011376740E040006040801247671000
:1001E000204080402010045363F800F812476780D5
:1001F0004020102040800257677088102020002087
:10020000025767708898A8B080700257672050889E
:1002100088F88888025767F04848704848F00257C5
:100220006770888080808870025767F04848484827
:1002300048F0025767F88080F08080F8025767F82E
:100240008080F080808002576770888080988870F6
:10025000025767888888F8888888123767E04040A6
:10026000404040E00257673810101010906002576D
:10027000678890A0C0A090880257678080808080A7
:1002800080F80257678888D8A888888802576788C6
:1002900088C8A89888880257677088888888887076
:1002A000025767F08888F0808080015868708888DD
:1002B0008888A87008025767F08888F0A0908802A4
:1002C000576770888070088870025767F820202070
:1002D000202020025767888888888888700257679E
:1002E00088888850505020025767888888A8A8D8E6
:1002F0008802576788885020508888025767888806
:100300005020202020025767F80810204080F81263
:100310003767E08080808080E002576780804020DF
:10032000100808123767E02020202020E0065363E1
:10033000205088015161F828226280400255657082
:10034000087888780257678080B0C888C8B002559E
:100350006570888088700257670808689888986870
:100360000255657088F88070025767304840F04049
:1003700040400057677888887808887002576780FF
:1003800080B0C88888881237674000C0404040E08D
:10039000104969100030101010909060025767806B
:1003A000808890E09088123767C04040404040E02D
:1003B000025565D0A8A8A888025565B0C888888865
:1003C0000255657088888870005767B0C888C8B0C3
:1003D000808000576768988898680808025565B05B
:1003E000C880808002556570807008F002576740B1
:1003F00040F040404830025565888888986802552A
:100400006588885050200255658888A8A8500255F4
:1004100065885020508800576788889868088870D9
:10042000025565F8102040F8124767304020C02080
:10043000403022176780808080808080124767C0AC
:100440002040304020C006536348A890FF000003BE
:10045000C000080000000003E000380000000003B6
:10046000F000780000000003F800F800000000032E
:10047000FC03F80000000007FE07F800000000077A
:10048000FF0FF8000001E007FFFFF803C001FE07BF
:10049000FFFFF807C001FFFFFFFFFC1FC000FFFFC9
:1004A000FFFFFCFF8000FFFFFFFFFFFF80007FFFDB
:1004B000FFFFFFFF80003FFF8001FFFF00001FFFE5
:1004C0000000FFFF00001FFE00007FFE000007FC91
:1004D00000003FFC000007F800001FF80007FFF7CE
:1004E000F81FEFFFE007FFF41FF02FFFC003FFF737
:1004F000C003EFFFC001FFF03FFC0FFF80007FF360
:10050000FC3FCFFE00003FF606606FF800000FF7DB
:10051000FE7FEFE000001FF462462FF000003FF482
:1005200002402FF800003FF402402FFE00007F93AE
:10053000FC3FC9FE00000F14000028FF00000793D5
:10054000F247C9F000000FD002400BF000001FF08E
:1005500002400FFC00003FF002400FFC00007FF162
:1005600001808FFC000003F200004FC0000003FA7E
:10057000FFFF5FC0000003EA020857C000000389C4
:10058000019891C00000000C00D03000000000066F
:100590000050E000000000038063800000000000C5
:1005A000E00E0000000000003FF800000000000323
:1005B000FFF800000000001FFFFC0000000001FF2A
:1005C000FFFF8000000007FFFFFFF00000000FFFAB
:1005D000FFFFF80000001FFFFFFFFE0000003FFFCD
:1005E000FFFFFF0000003FFFFFFFFF8000007FFFD5
:1005F000FE003F800000FFFFFE003F800000FFFF85
:10060000F00003000003FFFF000031800003FFFE45
:1006100000601E400007FFFC00C001FE0007FFF85D
:1006200001800301000FFFE01F000600801FFFC0D4
:1006300007F80C00801FFF801C0C0806C01FFE007E
:1006400030060806403FFE0060030800403FFC0003
:1006500040010800403FFC0040010800403FFC0012
:1006600040010400803FFC0040010600803FFC0088
:1006700046010183803FFC004601007C803FFC0076
:1006800020020000801FFC0010040180801FFC007D
:1006900008080040801FFC0007F00F80800FFC005E
:1006A00000000000800FFC00000000008007FDE05B
:1006B000000000008003FF00000006008000FE0034
:1006C0000000018180007E000000078300003E00E2
:1006D0000000360200000F82000034060000018C8A
:1006E00000001C08000000F80000003000000018A6
:1006F000000000700000000C000000400000000E30
:10070000000001C000000003C0000700003FFFFF21
:10071000FFFC7FFFFFFFFEFFFFFFFFFFFFFFFFFF6D
:10072000FFF00000000FF0C718000FF1EFBC000F42
:10073000F1EFBC000FF0C718000FF00000000FFF32
:10074000FFFFFFFFFFFFFFFFFFFFFFFFFFFFFFFFB9
:10075000FFFFFFFFFFFFFFFFFFFFFDFDFFFFFFFCB0
:10076000FCFFFFFFFC7C7FFFFFFC7C3FFFFFFC7C6E
:100770003FFFFFFC7C3FFFFFFC7C3FF0003C7C3FE9
:10078000F0003C7C3FF0003C7C3FF0003C7C3FF8BC
:10079000007C7C3FF8007C7C3FFC00FC7C3FFE0141
:1007A000FC7C3FFFCFFC7C3FFFCFFC7C3FFFCFFCBE
:1007B0007C3FFFCFFC7C7FFF87FCFCFFFF03FDFD40
:1007C000FFFFFFFFFFFFFFFFFFFFFFFFFFFFFFFF39
:1007D0007FFFFFFFFE3FFFFFFFFC1E0000007800D1
:1007E000000000240027002A000000000025002847
:1007F000002B0004040404040404040202020202A4
:1008000002030303030303010204081020408001D4
:100810000204081020010204081020000000080053
:1008200002010000030407000000000000000000B7
:100830001316E61011241FBECFEFD8E0DEBFCDBFE8
:1008400025E0AEE7B2E001C01D92A136B207E1F7A4
:1008500012E0A0E0B1E0EEECF5E302C005900D92ED
:10086000AE37B107D9F714E0C9E1D4E004C021974D
:10087000FE010E94D118C831D107C9F70E943A1170
:100880000C94DA1A0C9400000895DC011696ED9190
:10089000FC91179712968C91481B477081E090E06D
:1008A00001C0880F4A95EAF7E60FF11D3081222337
:1008B00011F0832B02C08095832380830895FB0170
:1008C0004181DC0112962C911297421768F0139621
:1008D0002C911397241740F0608115962C91621784
:1008E00018F424810C9445040895FC01808D8F5FD9
:1008F000089580E008950B96FC01849108950A966E
:10090000FC0184910895FC01849108950E94830460
:10091000882321F0823011F083E0089586E0089565
:10092000FC01E60FF11D849190E0982F8827319605
:10093000E4918E0F911D089568E00C94900466E098
:100940000C94900485ED8093BC008091BC0084FDE4
:10095000FCCF10920A03089540919E02262F30E0AA
:10096000240F311D21323105DCF420910A0324309B
:10097000C9F4FC0180E090E0861758F430919E02A3
:100980002191DC01A258BD4FA30FB11D2C930196FC
:10099000F3CF80919E02680F60939E0280E00895DD
:1009A00081E0089582E008950895E0910C0380911C
:1009B0000B03E81730F4F0E0E35FFC4F808190E038
:1009C00008958FEF9FEF089590910C0380910B0392
:1009D000981750F4E92FF0E0E35FFC4F208130E0FE
:1009E0009F5F90930C0302C02FEF3FEFC901089562
:1009F00080910B0390E020910C03821B91090895D4
:100A0000CF92DF92EF92FF920F931F93CF93DF93DA
:100A10007C01CB018A012091C102222389F0EB01E4
:100A20006B01C40ED51ECC15DD0569F06991D701A7
:100A3000ED91FC910190F081E02DC7010995F3CF74
:100A4000642F0E94AC04C801DF91CF911F910F91D8
:100A5000FF90EF90DF90CF900895CF93DF931F9298
:100A6000CDB7DEB769832091C1022223D1F0209156
:100A7000E302203240F021E030E0FC0133832283A6
:100A800080E090E015C08091C202E82FF0E0ED53C5
:100A9000FD4F998190838F5F8093C2028093E30220
:100AA00005C061E0CE0101960E94AC0481E090E0B7
:100AB0000F90DF91CF9108950E94C51AAF92BF9217
:100AC000CF92DF92FF920F931F93CF93DF936C012E
:100AD0008B01F42EE90120E1421709F466C02417C6
:100AE000F8F03AE0431721F18FE0481368C041E085
:100AF000C6010E943B0F40E0B801C6010E94320FC0
:100B000041E8B801C6010E94290F4881B801C60119
:100B10000E94290F40E0B801C6010E943B0FFFC0B0
:100B2000A1E14A1709F444C0B5E14B1791F047C061
:100B3000DB011496ED91FC91159720E030E042E046
:100B400061E009954EEA50E0B801C6010E94440FE9
:100B500036C0FB01A280B38046EA50E00E94440FF9
:100B6000D50114964C91406BB801C6010E94290F23
:100B700041E0B801C6010E94320FF501268137819C
:100B8000D8011496ED91FC911597D50115964C91CD
:100B900066E0C6010995811102C080E0C1C040E055
:100BA000B801C6010E943B0F0AC04DE950E002C0E7
:100BB00042E950E0B801C6010E94440FB0C0F801FC
:100BC00002811381F2E3FF1609F470C0FF15B8F03B
:100BD00025E1F21609F477C037E1F31609F489C06C
:100BE00084E1F8129CC0D8011696ED91FC911797FC
:100BF00015968C919F01280F311DC9015CC0A6E498
:100C0000FA1609F485C0B7E4FB1609F484C0EBE3D7
:100C1000FE1285C089819B81913029F0933031F497
:100C2000482F885004C048E0480F01C0482F51E0C9
:100C3000D80113962C91281708F450E031E0F80100
:100C40002281421708F430E021E0481708F020E044
:100C5000822F852B382319F4252309F460C0CA801C
:100C6000913061F038F0923061F0933071F4FF24EC
:100C7000FA940CC0F12CDD24D39409C0FF24F39422
:100C800005C0F12CDD24DA9402C0F12CD12CC7FE72
:100C900004C0BE01C8010E945F0488818D0D888355
:100CA00089818F0D8983CC0C91F739C0BE01C801B1
:100CB0000E945F0434C011928E179F07E1F7C801AC
:100CC0000E94CA0D2CC0C8010E94B40D882309F4EB
:100CD00064CFD8011696ED91FC91179715968C91DB
:100CE0009F01280F311DC90111928E179F07E1F74F
:100CF00016C01882D80112968C9112978983159686
:100D00008C91159781508A8313968C918B8307C0A1
:100D1000F801858103C0D80111968C91888381E008
:100D2000DF91CF911F910F91FF90DF90CF90BF90F7
:100D3000AF900895DB01ED91FC9109945F926F9261
:100D40007F928F929F92AF92BF92CF92DF92EF925B
:100D5000FF920F931F93CF93DF931F92CDB7DEB710
:100D60007C018901FB01C280D3804B3309F45BC055
:100D700028F44731F9F0423379F104C0463441F0A8
:100D8000473459F09801B601C7010E949A06B1C0D4
:100D90009E012F5F3F4F46E404C09E012F5F3F4FEF
:100DA00047E4B601C7010E949A0689818695F80139
:100DB00080839EC047E1B6010E949A06F8018081B7
:100DC00086958083828186958283818186958183C1
:100DD0008381869583838CC0F901A080AA0CB180A1
:100DE000BB0CA082B18242E3B6010E949A0699240C
:100DF00093949A0CF8019082B182980142E3B60173
:100E0000C7010E949A06B394F8019082B1829801BA
:100E100042E3B601C7010E949A06F801A082B1829E
:100E2000980142E361C0F9019281738088E0812CCE
:100E3000912C880C991C880C991C97FF02C0F3E038
:100E40008F2A990F8150A9F7F801A080AA0CB180D0
:100E5000BB0C70FE05C0552453945A0C6B2C04C077
:100E6000662463946B0C5A2CF8019282A082B182A2
:100E700098014BE3B601C7010E949A06F80150821F
:100E80006182738298014BE3B601C7010E949A0602
:100E9000F8018282F1E07F1681F07F1650F022E0A7
:100EA000721679F083E078120FC088EFB80E680EE2
:100EB0000BC0E8E0AE0E5E0E07C0F8E0BF0E6F0E8E
:100EC00003C028EFA20E520EF801A082B1827382F5
:100ED00098014BE3B601C7010E949A06F8015082BF
:100EE0006182738298014BE3B601C7010E949A06A2
:100EF00081E00F90DF91CF911F910F91FF90EF90C4
:100F0000DF90CF90BF90AF909F908F907F906F9029
:100F10005F9008950F931F93CF93DF931F92CDB7E8
:100F2000DEB78C01FC01628173819E012F5F3F4F10
:100F300046E40E949A068981F80180836281738168
:100F40009E012F5F3F4F47E4C8010E949A068981A6
:100F5000F80181836281738120E030E048E4C801B8
:100F60000E949A06F801838798012D5C3F4F6281A9
:100F7000738147E1C8010E949A060F90DF91CF91DB
:100F80001F910F9108950F93FC010150040F84A944
:100F900096A9941718F0081728F402C0081750F003
:100FA000041740F42150260F83A995A9961720F421
:100FB000281720F480E007C0281720F481E02617C6
:100FC00010F0F8CF81E00F9108955F926F927F92B9
:100FD0008F929F92AF92BF92CF92DF92EF92FF9249
:100FE0000F931F93CF93DF93EC01062F142FC22E84
:100FF000EC80FD80C7010E948304D82E8C819D81E6
:101000000E948604982E21E0D21203C02FE0A22E67
:1010100002C0AA24AA948C819D810E947F04D82EAC
:101020008C819D810E947B04B82E8C819D810E94C1
:101030009C04E0E6EC1538F4009729F0E80EF91E60
:1010400091E6D92E11C08C819D810E949F04F0E40D
:10105000FC1538F4009729F0E80EF91E81E4D82E2B
:1010600003C021E1E20EF11CBC1430F4188A1B8A83
:101070001C8A198A1A8A9AC0BD14C0F3892D90E07F
:10108000F70124912F3F21F4FFEFEF1AFF0A40C030
:10109000CD1035C08C819D810E94830497012F5F04
:1010A0003F4FF701882311F0823091F484918B8BAC
:1010B000F90124912C8BF7013396E491E88BF70129
:1010C0003496E491E98BF7013596E491EA8B25C0DB
:1010D0008491982F9F7092509A8B82958F70898BF4
:1010E000F9012491822F8F708C8B22952F702B8B7E
:1010F000F7013296E491E295EF70E88B0EC0F701AC
:101100003296E491EA219C012E0F311DE20EF31E6E
:10111000BD1409F4ABCFD394B3CFE114F10409F4B7
:1011200045C08C819D810E948604A82EDB88BC88E6
:10113000C988C00E8A898B0D181B0B2D2D2D412FB0
:101140006C2DCE010E94C307882371F1EA0CF11CBB
:1011500087E08D0DD82ED694D694D6945B2C510E64
:101160004E01FCE18F0E911C6D2C712C5116E1F09B
:101170000C2D57018A2D8E198D1590F4F50184914F
:101180006A817B810C8F1D8F1F8E8E8F94014BE3A4
:10119000CE010E949A06FFEFAF1ABF0A085FEACF9E
:1011A000E60CF71C1F5FE2CF888901C080E0DF9169
:1011B000CF911F910F91FF90EF90DF90CF90BF9054
:1011C000AF909F908F907F906F905F900895DF9287
:1011D000EF92FF920F931F93CF93DF93EC01D62EE4
:1011E0001CAD0BAD7C0184E0E80EF11CE98DFA8D9D
:1011F000C7010995412F480F2D2D602FC7010E946F
:10120000E5079BAD890F8BAF81E090E0DF91CF9137
:101210001F910F91FF90EF90DF9008951F920F9212
:101220000FB60F9211242F933F934F935F936F93B9
:101230007F938F939F93AF93BF93EF93FF9380918F
:10124000B900887F803609F49CC068F5883209F4BB
:101250005BC090F4803109F454C038F4882309F459
:10126000F2C0883009F44DC0F2C0883109F44CC096
:10127000803209F45DC0EBC0803409F468C048F4E2
:10128000803309F455C0883309F0E1C08093080326
:10129000D4C0803509F44FC0883509F45DC0883466
:1012A00009F0D5C0D2C0883909F4C3C0A8F4883782
:1012B00009F467C038F4883609F463C0803709F44C
:1012C00060C0C5C0883809F4B4C0803909F45FC073
:1012D000803809F0BCC05BC0803B09F484C038F49E
:1012E000803A09F466C0883A09F47DC0B0C0803CF9
:1012F00009F4A3C0883C09F4A0C0883B09F486C067
:10130000A6C08091050310C0909107038091060349
:10131000981770F5E091070381E08E0F8093070323
:10132000F0E0EC51FD4F80818093BB0085EC82C0E2
:10133000809308038AC0E091070381E08E0F8093B9
:1013400007038091BB00F0E0EC51FD4F808390914A
:101350000703809106036AC0E091070381E08E0FC6
:10136000809307038091BB00F0E0EC51FD4F808338
:1013700080910903811169C081E08093040384EAAC
:101380005DC083E080930A031092C002CFCF8091AA
:10139000C002803208F04DC0E091C00281E08E0FA3
:1013A0008093C0028091BB00F0E0E056FD4F808347
:1013B000BDCF85EC8093BC0010920A038091C002DF
:1013C000803230F4E091C002F0E0E056FD4F108230
:1013D0006091C00270E080EA92E0E0E0F0E0099500
:1013E0001092C00234C084E080930A0310929F02DE
:1013F00010929E02E0E0F0E0099580919E0281113A
:1014000005C081E080939E0210927E02E0919F02CF
:1014100081E08E0F80939F02F0E0E258FD4F8081C3
:101420008093BB0090919F0280919E02981708F4D0
:101430007DCF85E88093BC000AC085EC8093BC001A
:1014400010920A0304C0109208030E94A204FF91A4
:10145000EF91BF91AF919F918F917F916F915F912C
:101460004F913F912F910F900FBE0F901F901895A5
:101470008F929F92AF92BF92CF92DF92EF92FF92A4
:10148000CF93DF93EC010E9448106B017C018C85A7
:10149000811130C08C8D811106C0CC8ADD8AEE8A24
:1014A000FF8A81E08C8F8C899D89AE89BF89C81A9B
:1014B000D90AEA0AFB0A488D598D28EE33E0429F8B
:1014C000C001439F900D529F900D1124092E000CD6
:1014D000AA0BBB0BC816D906EA06FB060CF45BC0C8
:1014E0000E9448106C8B7D8B8E8B9F8B81E08C874C
:1014F0001C8E51C0AE85BF851A161B069CF44C8904
:101500005D896E897F8946015701841A950AA60A6A
:10151000B70A20E63AEE0E94D71886169706A80664
:10152000B9061CF48D858823B1F18D8D811108C019
:101530000E944810688B798B8A8B9B8B81E08D8F02
:1015400088899989AA89BB89C81AD90AEA0AFB0A33
:101550004A8D5B8D28EE33E0429FC001439F900D82
:10156000529F900D1124092E000CAA0BBB0BC8161C
:10157000D906EA06FB067CF08D8D882361F01C8677
:101580001D861D8E80912D0390912E0301969093C0
:101590002E0380932D03BE0186E693E00E94B510D2
:1015A000BE016A5F7F4F80E693E0DF91CF91FF90AD
:1015B000EF90DF90CF90BF90AF909F908F900C9462
:1015C000B510CF93DF93EC0161E08F810E94DD0FB6
:1015D0001882DF91CF910895CF93DF93EC0160E003
:1015E0008F810E94DD0F81E08883DF91CF91089584
:1015F0000F931F93CF93DF93EC012F81388533270F
:10160000F901E55EF74F8491F901E95FF74F049125
:10161000F901ED50F84F14911123A1F081110E94AE
:10162000B40FE12FF0E0EE0FFF1FE857FF4FA59139
:10163000B491EC91E02331E020E009F430E0832F15
:10164000922F02C080E090E021E0822781708883A1
:10165000DF91CF911F910F910895E2E0F4E014869D
:101660001586148E158EE4EEF3E014861586148E1E
:10167000158EE6ECF3E014861586148E158EE8EAD6
:10168000F3E014861586148E158EEAE8F3E01486CE
:101690001586148E158E089589E294E00E94E10A61
:1016A0008DE494E00E94E10A84E494E00E94E10A5F
:1016B0008BE394E00E94E10A82E394E00E94E10A55
:1016C00010922E0310922D0310922F030C942D0BC9
:1016D000CF93DF93EC0106960E94CC10CE01DF91F0
:1016E000CF910C94CC106F927F928F929F92AF9279
:1016F000BF92CF92DF92EF92FF920F931F93CF93FF
:10170000DF93EC015B016A0139016CE371E00E9437
:10171000D1104E0186E0880E911C6CE371E0C4018B
:101720000E94D110188A198A1A8A1B8A1C8A1D8A5B
:101730001E8A1F8A1C8E1D8EB98EA88EDB8ECA8EC5
:101740007F866E86B801CE010E94B510B701C40134
:10175000DF91CF911F910F91FF90EF90DF90CF908D
:10176000BF90AF909F908F907F906F900C94B5102A
:10177000CF92DF92EF92FF920F931F93CF93DF935D
:10178000EC01F62EE72E6A018C010F5F1F4F6CE310
:1017900071E0C8010E94D110FF82E88661E08F2DC0
:1017A0000E940C1061E08F810E94DD0FB601C8011C
:1017B000DF91CF911F910F91FF90EF90DF90CF902D
:1017C0000C94B510BF92CF92DF92EF92FF920F93DD
:1017D0001F93CF93DF93EC01F62EB72E6A01E22E12
:1017E0008C010F5F1F4F6CE371E0C8010E94D110A4
:1017F000FF82B8866E2D8F2D0E940C10B601C80195
:10180000DF91CF911F910F91FF90EF90DF90CF90DC
:10181000BF900C94B510CF93DF93C0919B04D091EF
:101820009C04E091CA04F091CB0482E0099520E089
:1018300030E04AE0BE0189E994E00E949A06C82F90
:10184000E091CA04F091CB0483E00995E091CA04C9
:10185000F091CB0480E00995CC2331F089E994E044
:101860000E948A0781E001C080E0DF91CF91089556
:10187000EF92FF920F931F93CF93DF93F82E062FD3
:10188000E42E152FE091AE04F091AF0489E994E0C5
:101890000995080FCE2DD12F10E02991222349F070
:1018A000402F6F2D89E994E00E94E507F80E180F8C
:1018B000F4CF812FDF91CF911F910F91FF90EF9087
:1018C000089580919D0490919E04009709F437C07B
:1018D0002091B004FC01211107C03596E491E093FA
:1018E000B104FC013C960FC0213039F43F96E491DD
:1018F000E093B104FC01709606C03D96E491E0933C
:10190000B104FC013E96E491E093B2048091B104ED
:10191000082E000C990B2091B204821B910927FD1F
:1019200093952091B304203441F0829FC00111248B
:1019300026E0969587952A95E1F78093B40408955B
:101940008F929F92AF92BF92CF92DF92EF92FF92CF
:101950000F931F93CF93DF93E82EF62EC42F5901D8
:10196000262F220F220F220F042F44E1682F89E92E
:1019700094E00E94C307882351F1CC5ED4E18F2C00
:10198000912CCD1721F165010F2D1E2D0023D9F0CB
:10199000F601849160919B0470919C041093B504AE
:1019A000D093B6041092B8048093B70425EB34E0CA
:1019B0004BE389E994E00E949A06FFEFCF1ADF0A11
:1019C0000150185FE3CFA80CB91CDF5FDACFDF91BD
:1019D000CF911F910F91FF90EF90DF90CF90BF902C
:1019E000AF909F908F90089580919B0490919C045C
:1019F0008A50914061F480910C0190910D01909377
:101A00009C0480939B0489E994E00C948A070895D0
:101A10008F929F92AF92BF920F931F93CF93DF93BA
:101A2000CDB7DEB7A1970FB6F894DEBF0FBECDBF1E
:101A300019A2423008F44AE08E010F5D1F4F842E38
:101A4000912CA12CB12CA50194010E949018E62F95
:101A5000B901CA0101501109EA3014F4E05D01C076
:101A6000E95CD801EC93232B242B252B61F701157E
:101A7000110571F0F80101900020E9F73197AF01ED
:101A8000401B510BB80185E994E00E94F20D02C0A1
:101A900080E090E0A1960FB6F894DEBF0FBECDBFF8
:101AA000DF91CF911F910F91BF90AF909F908F903A
:101AB000089580919B0490919C0421E08A309207C4
:101AC00051F090930D0180930C018AE091E0909386
:101AD0009C0480939B048EE996E090930B01809385
:101AE0000A0189E994E00C948A0741E050E067E834
:101AF00071E085E994E00C94F20DCF9384EA809331
:101B0000BC0061E080E80E946C0E882359F080914F
:101B1000B900887F883041F0803131F061E082E0A7
:101B20000E94650EC0E01DC088E78093BB0084E87A
:101B30008093BC0062E080E80E946C0E882391F3E1
:101B400080915303C82FC27081FD0AC08091B900F3
:101B5000887F883129F062E082E00E94650E01C032
:101B6000C1E08C2FCF910895FC0130819281930FB9
:101B700092832181921760F494819F5F9483838183
:101B8000830F821710F08FEF820F838381E0089517
:101B900080E00895FC011282808181508383148249
:101BA00008952EE93FE0009729F0F9013197F1F708
:101BB0000197F9CF089584E98093BC0064E080E147
:101BC0000C946C0E10925C05089580935303109250
:101BD000B90084FF02C08CE001C088E48093B800A3
:101BE0000C94E20DCF92DF92EF92FF920F931F932E
:101BF000CF93DF936C017A018B01C0E0D0E0CE156A
:101C0000DF0581F0D8016D918D01D601ED91FC9138
:101C10000190F081E02DC6010995892B11F02196E4
:101C2000EECF7E01C701DF91CF911F910F91FF9001
:101C3000EF90DF90CF900895CF93DF93EC018881F0
:101C40009981009711F00E947619198218821D82DD
:101C50001C821B821A82DF91CF910895EF92FF922E
:101C60000F931F93CF93DF93EC017B018A0188814F
:101C70009981009729F02A813B8124173507B0F418
:101C8000B8016F5F7F4F0E94FF19009759F0998349
:101C900088831B830A832C813D81232B39F4FC012B
:101CA000108204C0CE010E941C0E07C01D830C834D
:101CB000B701888199810E94D31ACE01DF91CF911B
:101CC0001F910F91FF90EF90089590915C059111F5
:101CD00002C080935C0508951F93CF93DF9300D0DB
:101CE000CDB7DEB720ED37E03A8329839091BC0071
:101CF000982399F429813A81232B51F4809153033D
:101D0000182F127081FD09C081E00E94650E06C087
:101D100029813A8121503109E7CF11E0812F0F90BD
:101D20000F90DF91CF911F910895CF938093BB00C7
:101D300084E88093BC0063E080E80E946C0EC82FAA
:101D4000882389F080915303C82FC27081FD0AC097
:101D50008091B900887F883229F063E082E00E9498
:101D6000650E01C0C1E08C2FCF910895CF93DF9312
:101D7000FC0123A5222379F0EC010E947D0D811145
:101D800002C080E009C08EA1811180E40E94950EFE
:101D90008823B9F31BA681E0DF91CF9108950F93BB
:101DA0001F93CF93C42F89016330C1F050F4613089
:101DB00081F0623009F048C0FC0146A321E023A76E
:101DC00043C0663011F1673079F1653009F03CC0ED
:101DD0000EC0FC0186A50E94E50D36C0FC0116A2CE
:101DE00021E023A7411130C00E94DB0D2DC00E94CD
:101DF000B60E811104C00E94DB0D80E026C08C2F3E
:101E00000E94950E811120C0F6CF0E94B60E882345
:101E100091F3CC23C9F0F80181918F010E94950EB6
:101E2000882349F3C150F5CF0E94B60E882319F3D9
:101E3000CC2351F0F80184910E94950E882329F05B
:101E40000F5F1F4FC150F4CF81E0CF911F910F91D1
:101E50000895DB011496ED91FC91159720E030E098
:101E600065E00994DB011496ED91FC91159720E053
:101E700030E062E00994DB011496ED91FC91159736
:101E800020E030E063E00994CF92DF92EF92FF927E
:101E90000F931F93CF93DF938C017B016A0180E046
:101EA000F601C49181110BC0CF3F09F44CC04C2FF7
:101EB000B701C8010E94290F811143C049C0CF3F1B
:101EC00011F44FEFF5CFCE3F09F444C0C03FC8F541
:101ED000C03E38F04C2F4F70B701C8010E94320F3E
:101EE00030C0C03D38F04C2F4F70B701C8010E9480
:101EF0003B0F27C0C03CF8F0D7011496ED91FC9140
:101F0000159720E030E040E064E0C8010995C295F3
:101F1000C07FCE5FD0E0CE010E94D10DD7011496D4
:101F2000ED91FC91159720E030E041E064E0C801BC
:101F30000995CE0104C0C7FD04C08C2F90E00E941B
:101F4000D10D80E001C081E0BFEFCB1ADB0AA8CF42
:101F500080E001C081E0DF91CF911F910F91FF9050
:101F6000EF90DF90CF900895833081F028F4813096
:101F700099F08230A1F008958730A9F08830B9F047
:101F80008430D1F4809180008F7D03C080918000E7
:101F90008F7780938000089584B58F7702C084B5D1
:101FA0008F7D84BD08958091B0008F7703C08091AC
:101FB000B0008F7D8093B00008951F93CF93DF937F
:101FC000282F30E0F901E55EF74F8491F901E95FD0
:101FD000F74FD491F901ED50F84FC491CC23C1F0E3
:101FE000162F81110E94B40FEC2FF0E0EE0FFF1FAF
:101FF000E751F84FA591B4919FB7F894111104C01F
:102000008C91D095D82302C0EC91DE2BDC939FBF3E
:10201000DF91CF911F910895CF93DF9390E0FC0162
:10202000E95FF74F2491FC01ED50F84F849188232C
:1020300061F190E0880F991FFC01E152F84FC591C2
:10204000D491FC01E751F84FA591B491611109C0F9
:102050009FB7F8948881209582238883EC912E2362
:102060000BC0623061F49FB7F8948881322F3095AD
:1020700083238883EC912E2B2C939FBF06C08FB7B0
:10208000F894E8812E2B28838FBFDF91CF9108959C
:102090002FB7F894609158057091590580915A05B1
:1020A00090915B052FBF08951F920F920FB60F926C
:1020B00011242F933F938F939F93AF93BF9380915E
:1020C000580590915905A0915A05B0915B05309142
:1020D000570523E0230F2D3720F40196A11DB11DD4
:1020E00005C026E8230F0296A11DB11D20935705B8
:1020F0008093580590935905A0935A05B0935B05BA
:102100008091530590915405A0915505B0915605C5
:102110000196A11DB11D8093530590935405A09382
:102120005505B0935605BF91AF919F918F913F9107
:102130002F910F900FBE0F901F901895CF93DF93A4
:10214000EC016115710559F0FB0101900020E9F7E0
:102150003197AF01461B570B0E942E0E02C00E9402
:102160001C0ECE01DF91CF910895CF93DF93EC0148
:10217000FB018617970761F0608171816115710518
:1021800029F0448155810E942E0E02C00E941C0E2F
:10219000CE01DF91CF910895FC01808191810C9453
:1021A0007619FC0111821082138212821582148228
:1021B0006115710551F0FB0101900020E9F731979D
:1021C000AF01461B570B0C942E0E089580E693E04A
:1021D0000E94CC1086E693E00E94CC108CE693E03F
:1021E0000E94680B8AE893E00E94680B88EA93E0FB
:1021F0000E94680B86EC93E00E94680B84EE93E0EB
:102200000E94680B82E094E00E94680B81E294E0F7
:102210000E94CC108AE294E00E94CC1083E394E008
:102220000E94CC108CE394E00E94CC1085E494E0F2
:102230000E94CC108EE494E00E94CC1087E594E0DC
:102240000E94CC1080E694E00E94CC1089E694E0D5
:102250000E94CC1082E794E00E94CC108BE794E0BF
:102260000E94CC1084E894E00E94CC108DE894E0A9
:102270000C94CC10789484B5826084BD84B5816060
:1022800084BD85B5826085BD85B5816085BD809141
:102290006E00816080936E001092810080918100B9
:1022A00082608093810080918100816080938100B1
:1022B000809180008160809380008091B100846073
:1022C0008093B1008091B00081608093B0008091D4
:1022D0007A00846080937A0080917A008260809393
:1022E0007A0080917A00816080937A0080917A00F0
:1022F000806880937A001092C10010920C031092B3
:102300000B031092C2021092E30210920A0381E0C2
:10231000809309031092040361E082E10E94DD0FC3
:1023200061E083E10E94DD0F8091B9008E7F809390
:10233000B9008091B9008D7F8093B90088E48093C3
:10234000B80085E48093BC000E944C0B50EA452EF7
:1023500055E1552E66246A94762CC1E0D0E040E128
:10236000242E312C0E9448106B017C0160934F0396
:1023700070935003809351039093520381E794E04C
:102380000E94F80A8CE894E00E94F80A8AE794E038
:102390000E94F80A83E894E00E94F80A9091710480
:1023A00080914E03992371F081112BC081E08093BD
:1023B0004E03C0924A03D0924B03E0924C03F0923A
:1023C0004D031FC08823E9F080914A0390914B038D
:1023D000A0914C03B0914D0346015701881A990A08
:1023E000AA0ABB0A8092460390924703A092480330
:1023F000B092490323E382169104A104B1040CF0C6
:10240000D9C380912F03882309F4EEC0E0912D03F6
:10241000F0912E03E031F10508F0A6C0EC5CFF4F0F
:102420000C94D1180E942D0B0E9448106093420317
:10243000709343038093440390934503D0932E03FA
:10244000C0932D039FC082E094E00E94380A8091DF
:102450000E04882309F46DC089E294E00E94EC0A1E
:1024600080918C04882309F4A5C081E080930F0437
:10247000A1C084EE93E00E94380A8091F003882383
:1024800059F080918C04882319F08DE494E04AC0BF
:1024900081E08093F1038EC08DE494E00E94E10A14
:1024A00089C086EC93E00E94380A8091D203882389
:1024B00071F08BE394E00E94EC0A80917A04811120
:1024C00003C082E394E02EC082E394E0E7CF82E38E
:1024D00094E00E94E10A8BE394E0E0CF88EA93E085
:1024E0000E94380A8091B40306C08AE893E00E94F3
:1024F000380A80919603882351F38BE394E00E947D
:10250000EC0A80918304DBCF8CE693E00E94380ACA
:1025100080917803882349F084E494E00E94EC0AD7
:1025200089E294E00E94EC0A45C084E494E00E94B1
:10253000E10A89E294E0B2CF6DE371E086E693E0D0
:102540000E949E1065E471E080E693E00E949E1078
:1025500080913C0390913D03181619065CF130926E
:102560002E0320922D0326C00E944C0B6EE471E0D6
:1025700086E693E00E949E1069E571E080E693E0B4
:102580000E949E10D0930101C093000180913E03F0
:1025900090913F03A0914003B09141038059984E20
:1025A000AF4FBF4F80933E0390933F03A0934003F0
:1025B000B09341038091420390914303A09144035F
:1025C000B0914503A7019601281B390B4A0B5B0B01
:1025D000CA01B901A30192010E94B21828583F4FC5
:1025E00030933D0320933C0380914F03909150031F
:1025F000A0915103B0915203409138035091390397
:1026000060913A0370913B03841B950BA60BB70BAB
:10261000883C9105A105B1050CF456C281E0809378
:10262000C10288E6809330031092C2021092E30246
:1026300060E084E593E00E942D059091E3029132E1
:1026400008F044C080910A038111FCCF82E080939E
:102650000A0381E0809309038FEF809308031092AF
:10266000070390930603E3ECF2E0A4EEB2E080E00F
:10267000981721F021912D938F5FFACF10920503C7
:1026800080910503806D8093050380910403813060
:1026900061F410920403809105038093BB00809144
:1026A000BC0083FDF8CF85EC01C085EE8093BC00B3
:1026B00080910A038230E1F3809108038F3F31F06B
:1026C00080910803803211F0809108031092C202B9
:1026D0001092E3021092C10280910A038111FCCF93
:1026E00081E080930A03809309039FEF909308038E
:1026F0001092070396E09093060380930503809160
:102700000503806D8093050380910403813061F49B
:1027100010920403809105038093BB008091BC005C
:1027200083FDF8CF85EC01C085EE8093BC008091DD
:102730000A038130E1F380910703873018F4909108
:10274000070301C097E0A4EEB2E0EDE0F3E080E023
:10275000891721F02D9121938F5FFACF10920C03EE
:1027600080930B0384E593E00E94E404982F9695F0
:10277000969596959E70292F220F220F920F8F709B
:10278000890F8093310384E593E00E94E404982F3D
:1027900092959F708F703AE0939F800D11248093E3
:1027A000320384E593E00E94E404982F9695969571
:1027B00096959670292F220F220F920F8F70890FF6
:1027C000809333038091D204811105C081E080930E
:1027D000D2040E940B0C00919B0410919C04E09188
:1027E000CA04F091CB0482E00995E091CA04F0910B
:1027F000CB0481E0099520E030E044E1B80189E9AB
:1028000094E00E949A062CEC34E047E1B80189E993
:1028100094E00E949A06E091CA04F091CB0480E013
:1028200009951FEF0FE081E2A82E9DE2992E23E388
:10283000822E34E1B32E80919D0490919E04845D9C
:10284000904071F084ED90E090939E0480939D04FD
:102850000E94610C29E734E03093AF042093AE046A
:1028600031E03093B0040E94610C8091A404803365
:1028700029F41093B9041093BA040BC0883221F0E4
:10288000823021F483E003C08FEF01C081E08093A8
:10289000B90445E754E05093AF044093AE040E945E
:1028A000590D59E05093D0041092D1048091330314
:1028B0008A3030F40E94750D0093D0041092D10438
:1028C0006091330370E080E090E04AE00E94080DE0
:1028D00041E651E06FEF85E10E94380C8BE1809377
:1028E000D0041092D104809132038A3030F40E94D7
:1028F000750DA092D0041092D1046091320370E063
:1029000080E090E04AE00E94080D41E651E06FEF60
:1029100087E20E94380C9092D0041092D1048091EA
:1029200031038A3030F40E94750D8092D0041092E9
:10293000D1046091310370E080E090E04AE00E94B1
:10294000080D0E94F40C80910001909101018230E9
:10295000910559F18330910509F463C0019709F09D
:1029600075C00E94590D1092D0048AE08093D10462
:1029700040916A0350916B03609166037091670305
:1029800085E994E00E94F20D1092D004B092D10437
:1029900040916403509165036091600370916103FD
:1029A00085E994E00E94F20D33C080912F038823C3
:1029B00091F10E94590D43E651E06AE089E00E94DE
:1029C000380C0093D004B092D104C0903C03D09056
:1029D0003D030D2C000CEE08FF08F7FE0EC06DE263
:1029E00085E994E00E94E70866277727CB016C19F8
:1029F0007D098E099F094AE003C04AE0C701B6017C
:102A00000E94080D4CE651E064E181E20E94380C1E
:102A10000E94F40C1BC02DE037E04AE265E08CE236
:102A200013C080912F03882389F08091200488238C
:102A300031F02DEA35E04CE268E085E005C02DE498
:102A400034E04CE268E08CE30E94A00CE091A70423
:102A5000F091A804309719F089E994E00995E09085
:102A60009B04F0909C04E091CA04F091CB0482E0B6
:102A70000995E091CA04F091CB0481E0099520E02A
:102A800030E045E1B70189E994E00E949A06D82E2A
:102A9000882341F02CEC34E047E1B70189E994E068
:102AA0000E949A06E091CA04F091CB0480E0099557
:102AB000D110C1CE0E94481060933803709339033F
:102AC00080933A0390933B03C0904F03D090500300
:102AD000E0905103F09052038091340390913503BC
:102AE000A0913603B0913703A7019601281B390B3B
:102AF0004A0B5B0BDA01C901843F9140A105B10586
:102B0000F4F00E944810609334037093350380936F
:102B100036039093370380912004882341F061E0CD
:102B2000809127040E94DD0F1092200408C060E00D
:102B3000809127040E94DD0F81E080932004809122
:102B40003E0390913F03A0914003B0914103C81A06
:102B5000D90AEA0AFB0A48E8C41643E1D406E104AC
:102B6000F10404F10E94481060933E0370933F0308
:102B70008093400390934103809100019091010163
:102B80000196909301018093000120912F03211160
:102B900007C003973CF0D0930101C093000102C02D
:102BA0000497CCF780E090E0892B09F4DBCB0E94FE
:102BB0000000D5CB10924E03D501C4018556910972
:102BC000A109B10983389340A105B10590F4809122
:102BD0002F03882371F00E944C0B68EE71E086E6AB
:102BE00093E00E949E1064E371E080E693E00E940F
:102BF0009E1049EE841A43E0940AA108B1085FE9E7
:102C000085165FE09506A104B10408F0FACB809127
:102C10002F038111FBCB81E080932F0310922E03B1
:102C200010922D03EECBEF92FF920F931F93CF9351
:102C3000DF93CDB7DEB72C970FB6F894DEBF0FBE8B
:102C4000CDBF109257031092560388EE93E0A0E098
:102C5000B0E08093580390935903A0935A03B09324
:102C60005B0380E291E090935503809354031092AC
:102C700098041092970480E391E0909396048093D7
:102C800095041092D0041092D1041092D2041092A4
:102C90009E0410929D041092A00410929F04109222
:102CA000A20481E08093A10482E28093A3041092A5
:102CB000A8041092A704ECEBF4E08AEC94E02FEF68
:102CC00021938E179F07E1F781E08093B90429E7EC
:102CD00034E03093AF042093AE048093B00410929C
:102CE000B1041092B20480E48093B3041092B4044F
:102CF00084E494E09093CB048093CA0480E191E053
:102D000090939C0480939B0482E18093C7040E946B
:102D10000B0C80E391E0909396048093950460E718
:102D200071E0CE0101960E94D11020E0AE014F5F0C
:102D30005F4F62E070E08CE894E00E94E20BCE010D
:102D400001960E94CC106BE771E0CE0101960E94C3
:102D5000D11022E0AE014F5F5F4F63E070E083E887
:102D600094E00E94E20BCE0101960E94CC1069E82B
:102D700071E0CE0101960E94D11022E0AE014F5FBA
:102D80005F4F64E070E08AE794E00E94E20BCE01BE
:102D900001960E94CC1067E971E0CE0101960E9475
:102DA000D11022E0AE014F5F5F4F65E070E081E738
:102DB00094E00E94E20BCE0101960E94CC1064EADE
:102DC00071E0CE0101960E94D11022E0AE014F5F6A
:102DD0005F4F6FE070E088E694E00E94E20BCE0166
:102DE00001960E94CC1062EB71E0CE0101960E9428
:102DF000D11022E0AE014F5F5F4F60E170E08FE5E0
:102E000094E00E94E20BCE0101960E94CC1061EC8E
:102E100071E0CE0101960E94D11022E0AE014F5F19
:102E20005F4F61E170E086E594E00E94E20BCE0125
:102E300001960E94CC106EEC71E0CE0101960E94CA
:102E4000D110AE014F5F5F4F68E070E08DE494E019
:102E50000E94B80BCE0101960E94CC1065ED71E086
:102E6000CE0101960E94D110AE014F5F5F4F69E025
:102E700070E084E494E00E94B80BCE0101960E94B9
:102E8000CC1061EE71E0CE0101960E94D110AE012E
:102E90004F5F5F4F6AE070E08BE394E00E94B80BF5
:102EA000CE0101960E94CC106EEE71E0CE0101962B
:102EB0000E94D110AE014F5F5F4F6BE070E082E384
:102EC00094E00E94B80BCE0101960E94CC1064E001
:102ED00072E0CE0101960E94D110AE014F5F5F4FAC
:102EE0006CE070E089E294E00E94B80BCE0101969C
:102EF0000E94CC1063E172E0CE0101960E94D110D5
:102F0000AE014F5F5F4F6DE070E080E294E00E94A1
:102F1000B80BCE0101960E94CC1061E272E0CE01A6
:102F200007960E94D1106BE072E0CE0101960E94DC
:102F3000D110CE0107967C018E010F5F1F4F20E05C
:102F400030E04AE050E060E070E082E094E00E940F
:102F5000730BC8010E94CC10C7010E94CC106AE21A
:102F600072E0C7010E94D11065E372E0C8010E94BF
:102F7000D11020E030E04AE050E06AE070E084EEFA
:102F800093E00E94730BC8010E94CC10C7010E94FD
:102F9000CC1065E471E0C7010E94D11061E472E0D9
:102FA000C8010E94D1102CE330E040E050E06AE01C
:102FB00070E086EC93E00E94730BC8010E94CC1075
:102FC000C7010E94CC1068E472E0C7010E94D110D2
:102FD0006EE472E0C8010E94D11022E030E040E0CF
:102FE00050E068E770E088EA93E00E94730BC80144
:102FF0000E94CC10C7010E94CC1066E572E0C701A8
:103000000E94D1106EE472E0C8010E94D1102AE043
:1030100030E040E050E060EB74E08AE893E00E942A
:10302000730BC8010E94CC10C7010E94CC1065E44C
:1030300071E0C7010E94D1106BE572E0C8010E94E7
:10304000D11021E030E040E050E06AE070E08CE632
:1030500093E00E94730BC8010E94CC10C7010E942C
:10306000CC1068E672E086E693E00E94D11062E739
:1030700072E080E693E00E94D1102C960FB6F8948F
:10308000DEBF0FBECDBFDF91CF911F910F91FF909B
:10309000EF9008952F923F924F925F926F927F929E
:1030A0008F929F92AF92BF92CF92DF92EF92FF9258
:1030B0000F931F93CF93DF93CDB7DEB7CA1BDB0B04
:1030C0000FB6F894DEBF0FBECDBF09942A883988A9
:1030D00048885F846E847D848C849B84AA84B984B0
:1030E000C884DF80EE80FD800C811B81AA81B981BC
:1030F000CE0FD11D0FB6F894DEBF0FBECDBFED01D0
:103100000895A29FB001B39FC001A39F700D811DC0
:103110001124911DB29F700D811D1124911D0895E0
:10312000A1E21A2EAA1BBB1BFD010DC0AA1FBB1FCB
:10313000EE1FFF1FA217B307E407F50720F0A21B3D
:10314000B30BE40BF50B661F771F881F991F1A94AA
:1031500069F760957095809590959B01AC01BD01D4
:10316000CF010895052E97FB1EF400940E94C91804
:1031700057FD07D00E94901807FC03D04EF40C9422
:10318000C91850954095309521953F4F4F4F5F4F4F
:10319000089590958095709561957F4F8F4F9F4FC3
:1031A0000895EE0FFF1F0590F491E02D09940E9401
:1031B0008118B7FF0895821B930B08950F931F93F7
:1031C000CF93DF938230910510F482E090E0E0919C
:1031D0005F05F091600520E030E0A0E0B0E03097BE
:1031E00019F1408151810281138148175907C8F0B4
:1031F0008417950769F4109731F012960C93129783
:1032000013961C9327C000935F051093600522C09E
:103210002115310519F04217530718F49A01BD0121
:10322000EF01DF01F801DBCF21153105F9F0281B93
:10323000390B2430310580F48A819B816115710539
:1032400021F0FB019383828304C0909360058093F7
:103250005F05FE01329644C0FE01E20FF31F819329
:10326000919322503109398328833AC020915D051A
:1032700030915E05232B41F4209118013091190102
:1032800030935E0520935D05209116013091170162
:103290002115310541F42DB73EB740911A015091E7
:1032A0001B01241B350BE0915D05F0915E05E217D3
:1032B000F307A0F42E1B3F0B2817390778F0AC0159
:1032C0004E5F5F4F2417350748F04E0F5F1F509336
:1032D0005E0540935D058193919302C0E0E0F0E0CC
:1032E000CF01DF91CF911F910F910895CF93DF937D
:1032F000009709F481C0FC01329713821282A091D9
:103300005F05B0916005109781F420813181820FB3
:10331000931F20915D0530915E052817390751F5FF
:10332000F0935E05E0935D0567C0ED0120E030E0BD
:10333000CE17DF0740F44A815B819E01411551059C
:10334000F1F0EA01F5CFD383C28340815181840F2C
:10335000951FC817D90759F488819981840F951F43
:103360000296918380838A819B8193838283211536
:10337000310529F4F0936005E0935F053DC0E90154
:10338000FB83EA8349915991C40FD51FEC17FD07C0
:1033900061F480819181840F951F0296E9019983E0
:1033A0008883828193819B838A83E0E0F0E0129698
:1033B0008D919C911397009719F0FD01DC01F7CFD7
:1033C0008D919C9111979D012E5F3F4F820F931F0E
:1033D00020915D0530915E052817390769F4309713
:1033E00029F41092600510925F0502C013821282C8
:1033F000B0935E05A0935D05DF91CF910895A0E0A5
:10340000B0E0E5E0FAE10C944E18EC01009721F4ED
:10341000CB010E94DE18B4C0FC01E60FF71F9C012F
:1034200022503109E217F30708F4A8C0D9010D9121
:103430001C91119706171707B0F00530110508F415
:103440009BC0C80104978617970708F495C00250DF
:103450001109061B170B019311936D937C93CF01F8
:103460000E94761989C05B01A01AB10A4C01800E36
:10347000911EA0915F05B0916005612C712CE12C2B
:10348000F12C109709F446C08D919C911197A815C5
:10349000B905B1F56C0142E0C40ED11CCA14DB04BD
:1034A00078F14C018A189B08640142E0C40ED11CDB
:1034B0001296BC9012971396AC91B5E0CB16D1043E
:1034C00040F0B282A38391828082D9016D937C9374
:1034D00009C00E5F1F4F800F911FF90191838083F8
:1034E000EB2DFA2FE114F10431F0D7011396FC9380
:1034F000EE93129741C0F0936005E0935F053CC0E6
:103500006816790608F43C017D0112960D90BC9175
:10351000A02DB7CF80915D0590915E058816990624
:10352000E1F466167706C8F48091160190911701B0
:10353000009741F48DB79EB740911A0150911B013D
:10354000841B950BE817F907C8F4F0935E05E09328
:103550005D05F901718360830FC0CB010E94DE1805
:103560007C01009759F0A801BE010E94CA1ACE0141
:103570000E947619C70104C0CE0102C080E090E02D
:10358000CDB7DEB7EEE00C946A1881E090E0F894D5
:103590000C94DA1AFB01DC0102C001900D9241503B
:1035A0005040D8F70895FB01DC0101900D920020F6
:1035B000E1F7089514E0C9E1D4E004C0FE010E94DF
:0E35C000D1182196CA31D107C9F7F894FFCF70
:1035CE000100084000000080D3049E0600000000A9
:1035DE005E050201CF0E00006105800000000000B4
:1035EE002D050005F804E404D504D4040000000001
:1035FE00E708F20D616E6E756C65202100536563F0
:10360E006861676500656E20636F7572730044694B
:10361E00736820636C65616E00492077696E2021A6
:10362E00003A0066696E2064616E73006D696E000B
:10363E0070726573736F7374617400746865726D04
:10364E006F7374617420353000746865726D6F73BA
:10365E0074617420363500737461727420656E6700
:10366E00696E6500626F75746F6E20676175636851
:10367E006500626F75746F6E2063656E7472616C37
:10368E0000626F75746F6E2064726F6974004556B8
:10369E0020656175004D6F74657572206375766572
:1036AE00004D6F74657572206379636C65005265A9
:1036BE0073697374616E63652064652063686175F8
:1036CE00666665004D6F7465757220766964616E0D
:1036DE006765006865617274626561745F4C45442C
:1036EE00006465206C27656175006465206C61203F
:1036FE00637576650072656D706C6973736167656D
:10370E00006C617661676500636F75727400726933
:10371E006E63616765006C6F6E6700726567656EDC
:10372E0065726174696F6E00204C65742773206733
:0E373E006F002077617368696E6720210000BC
:00000001FF
