:100000000C94FA070C9422080C9422080C942208F1
:100010000C9422080C9422080C9422080C942208B8
:100020000C9422080C942D0E0C9422080C94220897
:100030000C9422080C9422080C9422080C94220898
:100040000C947A140C9422080C9422080C94220824
:100050000C9422080C9422080C9422080C94220878
:100060000C948F0A0C942208521789179F17B71700
:1000700089179F17D51789179F17EF1789179F178C
:10008000EF178917F6170E1801060A00FE0701364A
:10009000026820FFFE08FE07FE0A00602217678044
:1000A000808080800080163363A0A0A00257675034
:1000B00050F850F850500257672070A070287020F8
:1000C00002576748A8502050A89002576740A0A048
:1000D00040A8906826136380808012376720408094
:1000E00080804020123767804020202040800355C8
:1000F000658850F850880355652020F8202011337A
:1001000063604080055161F811336340E04002575D
:100110006708081020408080025767205088888830
:1001200050200257672060A0202020F802576770F7
:100130008808304080F8025767F808103008887047
:1001400002576710305090F81010025767F880B0CF
:10015000C8088870025767304080B0C8887002575E
:1001600067F8081010204040025767708888708830
:100170008870025767708898680810601137674068
:10018000E0400040E04011376740E04000604080C0
:1001900012476710204080402010045363F800F895
:1001A00012476780402010204080025767708810F7
:1001B00020200020025767708898A8B080700257EE
:1001C0006720508888F88888025767F04848704848
:1001D00048F002576770888080808870025767F007
:1001E0004848484848F0025767F88080F08080F817
:1001F000025767F88080F08080800257677088809F
:1002000080988870025767888888F88888881237AD
:1002100067E04040404040E002576738101010103F
:1002200090600257678890A0C0A0908802576780AE
:100230008080808080F80257678888D8A88888885E
:100240000257678888C8A898888802576770888886
:1002500088888870025767F08888F080808001580D
:10026000687088888888A87008025767F08888F0C6
:10027000A09088025767708880700888700257675E
:10028000F8202020202020025767888888888888C6
:1002900070025767888888505050200257678888B6
:1002A00088A8A8D888025767888850205088880274
:1002B000576788885020202020025767F8081020B0
:1002C0004080F8123767E08080808080E0025767C6
:1002D00080804020100808123767E020202020206E
:1002E000E0065363205088015161F8282262804063
:1002F00002556570087888780257678080B0C88892
:10030000C8B0025565708880887002576708086811
:10031000988898680255657088F880700257673031
:100320004840F040404000576778888878088870D7
:100330000257678080B0C88888881237674000C03D
:10034000404040E01049691000301010109090605B
:1003500002576780808890E09088123767C04040DD
:10036000404040E0025565D0A8A8A888025565B075
:10037000C88888880255657088888870005767B07B
:10038000C888C8B08080005767689888986808084F
:10039000025565B0C880808002556570807008F095
:1003A0000257674040F040404830025565888888D1
:1003B000986802556588885050200255658888A83D
:1003C000A850025565885020508800576788889843
:1003D00068088870025565F8102040F812476730A9
:1003E0004020C0204030221767808080808080803D
:1003F000124767C02040304020C006536348A89091
:10040000FFFFFFFFFFFFFFFFFFFFFFFFFFFFFFFFFC
:10041000FFFFFFFFFFFFFFFFFFFFFFFFFFFFFFFFEC
:10042000FF0A00602217678000808080808001576B
:10043000672078A0A0A07820025767304840E040AD
:1004400048B0025565887050708801586888885097
:1004500020F8202020221767808080008080800183
:1004600058687080E09048380870193161A00257D0
:10047000677088A8C8A888701346667090B050004E
:10048000F00265652448904824144262F01015413A
:1004900061F00257677088E8C8C88870095161F830
:1004A00016336340A0400256662020F82020F8153D
:1004B000456560902040F0154565E0106010E0282B
:1004C00022624080015666888888C8B080025767DB
:1004D00078E8E86828282825116180202262408079
:1004E00015356540C04040E013466660909060005E
:1004F000F0026565904824489001696940C0404019
:10050000E40C143C0401696940C04040E81404084C
:100510001C015969C0204020C81828780802576774
:10052000200020204088700258684020708888F899
:1005300088880258681020708888F888880258686F
:100540002050708888F8888802586848B070888879
:10055000F888880258685000708888F8888802589F
:10056000682050708888F888880267673C50909CA3
:10057000F0909C00596970888080808870204002CB
:10058000586840F88080F08080F802586810F88041
:1005900080F08080F802586820F88080F08080F831
:1005A00002586850F88080F08080F81238688040E7
:1005B000E040404040E01238682040E04040404089
:1005C000E012386840A0E040404040E0123868A0A7
:1005D00000E040404040E0025767F04848E84848A3
:1005E000F0025868285088C8A8988888025868403F
:1005F00020708888888870025868102070888888E1
:1006000088700258682050708888888870025868FE
:1006100028507088888888700258685000708888D0
:1006200088887002556588502050880257677098F6
:1006300098A8C8C870025868402088888888887040
:10064000025868102088888888887002586820506E
:100650000088888888700258685000888888888850
:100660007002586810208888502020200257678028
:10067000F088F0808080025767708890A09088B0E2
:100680000258684020007008788878025868102066
:1006900000700878887802586820500070087888C0
:1006A0007802586828500070087888780257675098
:1006B0000070087888780258682050207008788880
:1006C0007802656578147C907C0057677088808814
:1006D0007020400258684020007088F880700258EE
:1006E000681020007088F8807002586820500070F0
:1006F00088F8807002576750007088F88070123850
:1007000068804000C0404040E0123868408000C02F
:10071000404040E012386840A000C0404040E01235
:100720003767A000C0404040E0025767C030708883
:10073000888870025868285000B0C8888888025895
:100740006840200070888888700258681020007007
:1007500088888870025868205000708888887002E5
:100760005868285000708888887002576750007059
:10077000888888700355652000F800200255657848
:1007800098A8C8F0025868402000888888986802B5
:10079000586810200088888898680258682050009F
:1007A0008888889868025767500088888898680009
:1007B000596910208888986808887000586880F007
:1007C000888888F080800059695000888898680877
:1007D00088703FFFFFFFFC000000000000007FFF6B
:1007E000FFFFFE00000C00000000FFFFFFFFFF0006
:1007F000007FC0000000FFFFFFFFFF0000FFF000D0
:100800000000F00000000F0003F3FE000000F0C63F
:1008100030000F000FC07FC00000F1EF78000F1F05
:100820003F000FF80000F1EF78000FFFFE0001FF1E
:100830000000F0C630000FFFF800003FE000F000BD
:1008400000000FC0F8000007F1FEFFFFFFFFFF00F0
:100850003C000000F1FEFFFFFFFFFF001E00000054
:1008600071FEFFFFFFFFFF000F00000071FEFFFFA2
:10087000FFFFFF000780000071FEFFFFFFFFFF0189
:10088000FFFFC00071FEFFFFFDFDFF03FFFFC00083
:1008900071FEFFFFFCFCFF070000000071FEFFFF80
:1008A000FC7C7F0E0000000071FEFFFFFC7C3F0C13
:1008B0000000000071FEFFFFFC7C3F0C0000000008
:1008C00071FEFFFFFC7C3F0C0000000071FEFFFF8B
:1008D000FC7C3F0E0000000071FEF0003C7C3F07F6
:1008E0000000000071FEF0003C7C3F03FFFFC000F1
:1008F00071FEF0003C7C3F01FFFFC00071FEF00084
:100900003C7C3F000700000071FEF8007C7C3F004B
:100910000F00000071FEF8007C7C3F001F0000000B
:1009200071FEFC00FC7C3F807FC0000071FEFE0178
:10093000FC7C3FE1F7F0000071FEFFCFFC7C3FFF45
:10094000E7FE000071FEFFCFFC7C3F3F867F80000A
:1009500071FEFFCFFC7C3F18060FF80071FEFFCF41
:10096000FC7C7F0C0603FFFFF1FEFF87FCFCFF0E03
:1009700006007FFFF1FEFF03FDFDFF07060007FFF6
:100980008000FFFFFFFFFF07860000000000FFFF61
:10099000FFFFFF03CE0000000000FFFFFFFFFF018D
:1009A000FE00000000007FFFFFFFFE00FC000000D3
:1009B00000003FFFFFFFFC000000000000001E00E1
:1009C000000078000000000000003FFFFFFFFC0077
:1009D0000000000000007FFFFFFFFE00000001801C
:1009E0000000FFFFFFFFFF0000000FF80000FFFF07
:1009F000FFFFFF0000001FFE0000F00000000F00DE
:100A000000007E7FC000F0C630000F000001F80F2C
:100A1000F800F1EF78000F0003E7E001FF00F1EFCD
:100A200078000F001FFFC0003FE0F0C630000F004D
:100A30003FFF000007FCF00000000F00781F0000DF
:100A400000FEFFFFFFFFFF00E0078000001EFFFF2A
:100A5000FFFFFF01C007C000000EFFFFFFFFFF0305
:100A60008001E000000EFFFFFFFFFF078001F000A4
:100A7000000EFFFFFFFFFF07003FFFF8000EFFFF24
:100A8000FDFDFF0E007FFFF8000EFFFFFCFCFF0CDA
:100A900000E03000000EFFFFFC7C7F0C01C0300046
:100AA000000EFFFFFC7C3F0C01803000000EFFFFBA
:100AB000FC7C3F0C01803000000EFFFFFC7C3F0EF1
:100AC00001803000000EFFFFFC7C3F0C01C03000B5
:100AD000000EF0003C7C3F0E00E03000000EF00005
:100AE0003C7C3F0E007FFFF8000EF0003C7C3F0690
:100AF000003FFFF8000EF0003C7C3F078001E00063
:100B0000000EF8007C7C3F038001E000000EF8003E
:100B10007C7C3F01C003E000000EFC00FC7C3F0039
:100B2000F00FF800000EFE01FC7C3F007C3EFE0052
:100B3000000EFFCFFC7C3F003FFCFFC0000EFFCF4C
:100B4000FC7C3F000FF0CFF0000EFFCFFC7C3F009D
:100B50000300C1FF000EFFCFFC7C7F000180C07F3F
:100B6000FFFEFF87FCFCFF0001C0C00FFFFEFF037C
:100B7000FDFDFF0000E0C000FFF0FFFFFFFFFF00F2
:100B800000F0C0000000FFFFFFFFFF000079C00081
:100B90000000FFFFFFFFFF00003FC00000007FFFDD
:100BA000FFFFFE00001F800000003FFFFFFFFC0072
:100BB0000000000000001E0000007800000000009F
:100BC00000003FFFFFFFFC7FFFFFFFFEFFFFFFFF77
:100BD000FFFFFFFFFFFFF00000000FF0C718000F3E
:100BE000F1EFBC000FF1EFBC000FF0C718000FF0E1
:100BF0000000000FFFFFFFFFFFFFFFFFFFFFFFFFF2
:100C0000FFFFFFFFFFFFFFFFFFFFFFFFFFFFFFFDF6
:100C1000FDFFFFFFFCFCFFFFFFFC7C7FFFFFFC7C78
:100C20003FFFFFFC7C3FFFFFFC7C3FFFFFFC7C3F66
:100C3000F0003C7C3FF0003C7C3FF0003C7C3FF00F
:100C4000003C7C3FF8007C7C3FF8007C7C3FFC0053
:100C5000FC7C3FFE01FC7C3FFFCFFC7C3FFFCFFCD8
:100C60007C3FFFCFFC7C3FFFCFFC7C7FFF87FCFC01
:100C7000FFFF03FDFDFFFFFFFFFFFFFFFFFFFFFF84
:100C8000FFFFFFFFFF7FFFFFFFFE3FFFFFFFFC1E99
:100C900000000078000003C000080000000003E02E
:100CA00000380000000003F000780000000003F8A6
:100CB00000F80000000003FC03F80000000007FE3D
:100CC00007F80000000007FF0FF8000001E007FF31
:100CD000FFF803C001FE07FFFFF807C001FFFFFF99
:100CE000FFFC1FC000FFFFFFFFFCFF8000FFFFFFB6
:100CF000FFFFFF80007FFFFFFFFFFF80003FFF80BF
:100D000001FFFF00001FFF0000FFFF00001FFE00AB
:100D1000007FFE000007FC00003FFC000007F80019
:100D2000001FF80007FFF7F81FEFFFE007FFF41FB1
:100D3000F02FFFC003FFF7C003EFFFC001FFF03F3C
:100D4000FC0FFF80007FF3FC3FCFFE00003FF60664
:100D5000606FF800000FF7FE7FEFE000001FF46205
:100D6000462FF000003FF402402FF800003FF4024D
:100D7000402FFE00007F93FC3FC9FE00000F1400CF
:100D80000028FF00000793F247C9F000000FD002CF
:100D9000400BF000001FF002400FFC00003FF0028B
:100DA000400FFC00007FF101808FFC000003F20087
:100DB000004FC0000003FAFFFF5FC0000003EA021B
:100DC0000857C000000389019891C00000000C0082
:100DD000D03000000000060050E00000000003805A
:100DE00063800000000000E00E0000000000003FF3
:100DF000F8000000000003FFF800000000001FFFE3
:100E0000FC0000000001FFFFFF8000000007FFFF63
:100E1000FFF00000000FFFFFFFF80000001FFFFFC2
:100E2000FFFE0000003FFFFFFFFF0000003FFFFF4D
:100E3000FFFF8000007FFFFE003F800000FFFFFEFD
:100E4000003F800000FFFFF00003000003FFFF00F1
:100E50000031800003FFFE00601E400007FFFC0021
:100E6000C001FE0007FFF801800301000FFFE01F33
:100E7000000600801FFFC007F80C00801FFF801CC9
:100E80000C0806C01FFE0030060806403FFE00604A
:100E9000030800403FFC0040010800403FFC0040C8
:100EA000010800403FFC0040010400803FFC00407E
:100EB000010600803FFC0046010183803FFC0046A4
:100EC00001007C803FFC0020020000801FFC00101D
:100ED000040180801FFC0008080040801FFC000700
:100EE000F00F80800FFC0000000000800FFC00006D
:100EF0000000008007FDE0000000008003FF00000C
:100F00000006008000FE000000018180007E0000DD
:100F100000078300003E000000360200000F820040
:100F20000034060000018C00001C08000000F800DE
:100F300000003000000018000000700000000C00ED
:100F40000000400000000E000001C000000003C0CF
:100F50000007000000000000230026002900FFE039
:100F6000FFD1AFFF32FFD0FFFEFFE0FFD1AEFFD0D9
:100F7000FFFEFFE0FFD11000FFFEFFD0FFE0FFC14A
:100F8000FFD1AED580A83FD300408D142000A1C86A
:100F9000DA1281CFD9F1DB402EA4A6AFFFD0FFFE3D
:100FA00000000000240027002A00000000002500A7
:100FB00028002B00040404040404040402020202B6
:100FC000020203030303030301020408102040800C
:100FD000010204081020010204081020000000088B
:100FE00000020100000304070000000000000000F0
:100FF000FB1CB31C11241FBECFEFD8E0DEBFCDBF5A
:1010000026E0A4E4B3E001C01D92A933B207E1F7E2
:1010100013E0A0E0B1E0EEE6F3E402C005900D922B
:10102000A434B107D9F717E0C9EFD7E004C021977E
:10103000FE010E94A11FC83FD107C9F70E943F15BA
:101040000C94AA210C94000085ED8093BC00809143
:10105000BC0084FDFCCF10929A03089540910B04CC
:10106000262F30E0240F311D21323105DCF4209190
:101070009A032430C9F4FC0180E090E0861758F40C
:1010800030910B042191DC01A551BC4FA30FB11D80
:101090002C930196F3CF80910B04680F60930B049F
:1010A00080E0089581E0089582E008950895DC01CC
:1010B0001696ED91FC91179712968C91481B4770EC
:1010C00081E090E001C0880F4A95EAF7E60FF11D34
:1010D0003081222311F0832B02C0809583238083EB
:1010E0000895FB014181DC0112962C911297421761
:1010F00068F013962C911397241740F06081159691
:101100002C91621718F424810C9457080895FC015F
:10111000808D8F5F089580E008950B96FC01849187
:1011200008950A96FC0184910895FC018491089524
:101130000E949508882321F0823011F083E0089501
:1011400086E00895FC01E60FF11D849190E0982F50
:1011500088273196E4918E0F911D089568E00C94D4
:10116000A20866E00C94A2080895E0919C03809187
:101170009B03E81730F4F0E0E356FC4F808190E0E9
:1011800008958FEF9FEF089590919C0380919B03AA
:10119000981750F4E92FF0E0E356FC4F208130E03F
:1011A0009F5F90939C0302C02FEF3FEFC90108950A
:1011B00080919B0390E020919C03821B91090895EC
:1011C000CF92DF92EF92FF920F931F93CF93DF9313
:1011D0007C01CB018A0120915103222389F0EB018C
:1011E0006B01C40ED51ECC15DD0569F06991D701E0
:1011F000ED91FC910190F081E02DC7010995F3CFAD
:10120000642F0E942E08C801DF91CF911F910F918A
:10121000FF90EF90DF90CF900895CF93DF931F92D0
:10122000CDB7DEB76983209151032223D1F02091FD
:101230007303203240F021E030E0FC01338322834D
:1012400080E090E015C080915203E82FF0E0ED5A65
:10125000FC4F998190838F5F809352038093730337
:1012600005C061E0CE0101960E942E0881E090E069
:101270000F90DF91CF9108950E949521AF92BF9278
:10128000CF92DF92FF920F931F93CF93DF936C0166
:101290008B01F42EE90120E1421709F466C02417FE
:1012A000F8F03AE0431721F18FE0481368C041E0BD
:1012B000C6010E946D1340E0B801C6010E9464138C
:1012C00041E8B801C6010E945B134881B801C6011C
:1012D0000E945B1340E0B801C6010E946D13FFC07D
:1012E000A1E14A1709F444C0B5E14B1791F047C09A
:1012F000DB011496ED91FC91159720E030E042E07F
:1013000061E009954AE75FE0B801C6010E947613E3
:1013100036C0FB01A280B38042E75FE00E947613F3
:10132000D50114964C91406BB801C6010E945B1325
:1013300041E0B801C6010E946413F501268137819E
:10134000D8011496ED91FC911597D50115964C9105
:1013500066E0C6010995811102C080E0C1C040E08D
:10136000B801C6010E946D130AC049E65FE002C0E1
:101370004EE55FE0B801C6010E947613B0C0F801E7
:1013800002811381F2E3FF1609F470C0FF15B8F073
:1013900025E1F21609F477C037E1F31609F489C0A4
:1013A00084E1F8129CC0D8011696ED91FC91179734
:1013B00015968C919F01280F311DC9015CC0A6E4D0
:1013C000FA1609F485C0B7E4FB1609F484C0EBE310
:1013D000FE1285C089819B81913029F0933031F4D0
:1013E000482F885004C048E0480F01C0482F51E002
:1013F000D80113962C91281708F450E031E0F80139
:101400002281421708F430E021E0481708F020E07C
:10141000822F852B382319F4252309F460C0CA8054
:10142000913061F038F0923061F0933071F4FF2424
:10143000FA940CC0F12CDD24D39409C0FF24F3945A
:1014400005C0F12CDD24DA9402C0F12CD12CC7FEAA
:1014500004C0BE01C8010E94710888818D0D888377
:1014600089818F0D8983CC0C91F739C0BE01C801E9
:101470000E94710834C011928E179F07E1F7C801CE
:101480000E9445122CC0C8010E942F12882309F423
:1014900064CFD8011696ED91FC91179715968C9113
:1014A0009F01280F311DC90111928E179F07E1F787
:1014B00016C01882D80112968C91129789831596BE
:1014C0008C91159781508A8313968C918B8307C0DA
:1014D000F801858103C0D80111968C91888381E041
:1014E000DF91CF911F910F91FF90DF90CF90BF9030
:1014F000AF90089580911305882341F061E08091B9
:101500001A050E940F1410921305089560E080914F
:101510001A050E940F1481E08093130508951F920D
:101520000F920FB60F9211242F933F934F935F9317
:101530006F937F938F939F93AF93BF93EF93FF939B
:101540008091B900887F803609F49CC068F58832A4
:1015500009F45BC090F4803109F454C038F4882356
:1015600009F4F2C0883009F44DC0F2C0883109F4A2
:101570004CC0803209F45DC0EBC0803409F468C00F
:1015800048F4803309F455C0883309F0E1C08093F2
:101590009803D4C0803509F44FC0883509F45DC084
:1015A000883409F0D5C0D2C0883909F4C3C0A8F482
:1015B000883709F467C038F4883609F463C0803787
:1015C00009F460C0C5C0883809F4B4C0803909F492
:1015D0005FC0803809F0BCC05BC0803B09F484C0A8
:1015E00038F4803A09F466C0883A09F47DC0B0C086
:1015F000803C09F4A3C0883C09F4A0C0883B09F4EE
:1016000086C0A6C08091950310C0909197038091E9
:101610009603981770F5E091970381E08E0F809301
:101620009703F0E0EC58FC4F80818093BB0085EC81
:1016300082C0809398038AC0E091970381E08E0F67
:10164000809397038091BB00F0E0EC58FC4F8083BF
:1016500090919703809196036AC0E091970381E08F
:101660008E0F809397038091BB00F0E0EC58FC4F05
:10167000808380919903811169C081E080939403F4
:1016800084EA5DC083E080939A0310922D04CFCF4B
:1016900080912D04803208F04DC0E0912D0481E04E
:1016A0008E0F80932D048091BB00F0E0E35FFB4F31
:1016B0008083BDCF85EC8093BC0010929A0380910B
:1016C0002D04803230F4E0912D04F0E0E35FFB4F15
:1016D000108260912D0470E08DE094E0E0E0F0E095
:1016E000099510922D0434C084E080939A031092DF
:1016F0000C0410920B04E0E0F0E0099580910B04DB
:10170000811105C081E080930B041092EB03E091FE
:101710000C0481E08E0F80930C04F0E0E551FC4F47
:1017200080818093BB0090910C0480910B049817EA
:1017300008F47DCF85E88093BC000AC085EC8093D7
:10174000BC0010929A0304C0109298030E942408CF
:10175000FF91EF91BF91AF919F918F917F916F9189
:101760005F914F913F912F910F900FBE0F901F905F
:101770001895DB01ED91FC9109945F926F927F9235
:101780008F929F92AF92BF92CF92DF92EF92FF9291
:101790000F931F93CF93DF931F92CDB7DEB77C01DA
:1017A0008901FB01C280D3804B3309F45BC028F46C
:1017B0004731F9F0423379F104C0463441F04734FF
:1017C00059F09801B601C7010E94B90BB1C09E0142
:1017D0002F5F3F4F46E404C09E012F5F3F4F47E419
:1017E000B601C7010E94B90B89818695F8018083F3
:1017F0009EC047E1B6010E94B90BF8018081869531
:10180000808382818695828381818695818383818D
:10181000869583838CC0F901A080AA0CB180BB0C93
:10182000A082B18242E3B6010E94B90B992493943D
:101830009A0CF8019082B182980142E3B601C70187
:101840000E94B90BB394F8019082B182980142E3EF
:10185000B601C7010E94B90BF801A082B1829801BC
:1018600042E361C0F9019281738088E0812C912C60
:10187000880C991C880C991C97FF02C0F3E08F2AF2
:10188000990F8150A9F7F801A080AA0CB180BB0C78
:1018900070FE05C0552453945A0C6B2C04C066246A
:1018A00063946B0C5A2CF8019282A082B182980149
:1018B0004BE3B601C7010E94B90BF8015082618267
:1018C000738298014BE3B601C7010E94B90BF8017E
:1018D0008282F1E07F1681F07F1650F022E07216CE
:1018E00079F083E078120FC088EFB80E680E0BC055
:1018F000E8E0AE0E5E0E07C0F8E0BF0E6F0E03C04C
:1019000028EFA20E520EF801A082B18273829801D4
:101910004BE3B601C7010E94B90BF8015082618206
:10192000738298014BE3B601C7010E94B90B81E0B5
:101930000F90DF91CF911F910F91FF90EF90DF906B
:10194000CF90BF90AF909F908F907F906F905F905F
:1019500008950F931F93CF93DF931F92CDB7DEB7F8
:101960008C01FC01628173819E012F5F3F4F46E431
:101970000E94B90B8981F8018083628173819E0185
:101980002F5F3F4F47E4C8010E94B90B8981F801DE
:1019900081836281738120E030E048E4C8010E94C5
:1019A000B90BF801838798012D5C3F4F62817381E9
:1019B00047E1C8010E94B90B0F90DF91CF911F91B1
:1019C0000F9108950F93FC010150040F84A996A96B
:1019D000941718F0081728F402C0081750F00417DD
:1019E00040F42150260F83A995A9961720F42817B3
:1019F00020F480E007C0281720F481E0261710F0BB
:101A0000F8CF81E00F9108955F926F927F928F924D
:101A10009F92AF92BF92CF92DF92EF92FF920F937D
:101A20001F93CF93DF93EC01062F142FC22EEC806F
:101A3000FD80C7010E949508D82E8C819D810E944F
:101A40009808982E21E0D21203C02FE0A22E02C0E7
:101A5000AA24AA948C819D810E949108D82E8C8101
:101A60009D810E948D08B82E8C819D810E94AE08B8
:101A7000E0E6EC1538F4009729F0E80EF91E91E63F
:101A8000D92E11C08C819D810E94B108F0E4FC1513
:101A900038F4009729F0E80EF91E81E4D82E03C02F
:101AA00021E1E20EF11CBC1430F4188A1B8A1C8A56
:101AB000198A1A8A9AC0BD14C0F3892D90E0F701E3
:101AC00024912F3F21F4FFEFEF1AFF0A40C0CD1001
:101AD00035C08C819D810E94950897012F5F3F4FF3
:101AE000F701882311F0823091F484918B8BF901F6
:101AF00024912C8BF7013396E491E88BF70134960F
:101B0000E491E98BF7013596E491EA8B25C0849145
:101B1000982F9F7092509A8B82958F70898BF901C4
:101B20002491822F8F708C8B22952F702B8BF70135
:101B30003296E491E295EF70E88B0EC0F701329691
:101B4000E491EA219C012E0F311DE20EF31EBD141B
:101B500009F4ABCFD394B3CFE114F10409F445C039
:101B60008C819D810E949808A82EDB88BC88C9883A
:101B7000C00E8A898B0D181B0B2D2D2D412F6C2D1E
:101B8000CE010E94E20C882371F1EA0CF11C87E07F
:101B90008D0DD82ED694D694D6945B2C510E4E0132
:101BA000FCE18F0E911C6D2C712C5116E1F00C2D67
:101BB00057018A2D8E198D1590F4F50184916A8153
:101BC0007B810C8F1D8F1F8E8E8F94014BE3CE0176
:101BD0000E94B90BFFEFAF1ABF0A085FEACFE60C0D
:101BE000F71C1F5FE2CF888901C080E0DF91CF91B1
:101BF0001F910F91FF90EF90DF90CF90BF90AF902B
:101C00009F908F907F906F905F900895DF92EF92FA
:101C1000FF920F931F93CF93DF93EC01D62E1CAD51
:101C20000BAD7C0184E0E80EF11CE98DFA8DC70153
:101C30000995412F480F2D2D602FC7010E94040DDB
:101C40009BAD890F8BAF81E090E0DF91CF911F9129
:101C50000F91FF90EF90DF9008951F920F920FB6B3
:101C60000F9211242F933F934F935F936F937F9322
:101C70008F939F93AF93BF93EF93FF9380914A030A
:101C800090914B038093B20080914D0390914E034D
:101C9000A0914F03B09150030196A11DB11D8093F7
:101CA0004D0390934E03A0934F03B0935003809144
:101CB0004D0390914E03A0914F03B091500340917A
:101CC000460350914703609148037091490384177C
:101CD0009507A607B70710F180914C0381111EC02C
:101CE00081E080934C0380914D0390914E03A0912D
:101CF0004F03B0915003841B950BA60BB70B809339
:101D00004D0390934E03A0934F03B0935003E09183
:101D10004403F0914503099510924C03FF91EF9114
:101D2000BF91AF919F918F917F916F915F914F91F3
:101D30003F912F910F900FBE0F901F9018958F928B
:101D40009F92AF92BF92CF92DF92EF92FF92CF938A
:101D5000DF93EC018C85811131C088A1C090BF0355
:101D6000D090C003E090C103F090C203811106C07F
:101D7000CC8ADD8AEE8AFF8A81E088A38C899D89DE
:101D8000AE89BF8946015701881A990AAA0ABB0A77
:101D9000288D398D4A8D5B8DA8EEB3E00E940F1F10
:101DA00086169706A806B9060CF460C0CC8ADD8AB0
:101DB000EE8AFF8A81E08C8718A258C0AE85BF8565
:101DC0001A161B06CCF4C090BF03D090C003E0905D
:101DD000C103F090C2034C895D896E897F89C41A62
:101DE000D50AE60AF70A20E63AEE0E94A71FC616B1
:101DF000D706E806F9061CF48D858823B9F129A1D8
:101E00008091BF039091C003A091C103B091C20320
:101E1000211106C0888B998BAA8BBB8B21E029A34B
:101E2000488959896A897B896C017D01C41AD50A60
:101E3000E60AF70A2C8D3D8D4E8D5F8DA8EEB3E03E
:101E40000E940F1FC616D706E806F9067CF089A186
:101E5000882361F01C861D8619A28091BD03909194
:101E6000BE0301969093BE038093BD03BE0181E43F
:101E700094E00E940415BE016A5F7F4F8BE394E0FB
:101E8000DF91CF91FF90EF90DF90CF90BF90AF9018
:101E90009F908F900C940415CF93DF93EC0161E039
:101EA0008F810E940F141882DF91CF910895CF93F4
:101EB000DF93EC0160E08F810E940F1481E0888342
:101EC000DF91CF9108950F931F93CF93DF93EC0190
:101ED0002F8138853327F901E452F04F8491F901BD
:101EE000E853F04F0491F901EC54F04F1491112391
:101EF000A1F081110E94E613E12FF0E0EE0FFF1F29
:101F0000EC5AF04FA591B491EC91E02331E020E040
:101F100009F430E0832F922F02C080E090E021E0AE
:101F2000822781708883DF91CF911F910F9108954F
:101F30008CE195E00E944C0F80E495E00E944C0FEC
:101F400087E395E00E944C0F8EE295E00E944C0FD3
:101F500085E295E00C944C0FE1EFF4E014861586D1
:101F600010A211A2EFECF4E01486158610A211A2C3
:101F7000EDEAF4E01486158610A211A2EBE8F4E075
:101F80001486158610A211A2E9E6F4E014861586DF
:101F900010A211A20895CF93DF93EC0106960E9440
:101FA0002515CE01DF91CF910C942515009769F08E
:101FB000FC0101900020E9F73197AF01481B590B54
:101FC000BC018DE695E00C948E1280E090E00895BF
:101FD0004F925F926F927F92AF92BF92CF92DF92B9
:101FE000EF92FF920F931F93CF93DF9300D000D017
:101FF00000D0CDB7DEB79E838D8349835A836B8330
:102000007C832801390164E572E00E942A150D8164
:102010001E810A5F1F4F64E572E0C8010E942A1505
:10202000AD81BE8150961D921D921D921C925397B8
:10203000FD01148A158A168A178A10A211A28981B5
:102040009A81AB81BC81808F918FA28FB38F448E98
:10205000558E668E778EF786E686B601CF010E9492
:102060000415B501C80126960FB6F894DEBF0FBE61
:10207000CDBFDF91CF911F910F91FF90EF90DF9037
:10208000CF90BF90AF907F906F905F904F900C94E7
:102090000415CF92DF92EF92FF920F931F93CF938D
:1020A000DF93EC01F62EE72E6A018C010F5F1F4FC4
:1020B00064E572E0C8010E942A15FF82E88661E0AB
:1020C0008F2D0E943E1461E08F810E940F14B60193
:1020D000C801DF91CF911F910F91FF90EF90DF909A
:1020E000CF900C940415BF92CF92DF92EF92FF92A3
:1020F0000F931F93CF93DF93EC01F62EB72E6A0157
:10210000E22E8C010F5F1F4F64E572E0C8010E9450
:102110002A15FF82B8866E2D8F2D0E943E14B601BF
:10212000C801DF91CF911F910F91FF90EF90DF9049
:10213000CF90BF900C940415CF93DF93C09173059B
:10214000D0917405E091A205F091A30582E0099574
:1021500020E030E04AE0BE0181E795E00E94B90B43
:10216000C82FE091A205F091A30583E00995E091C5
:10217000A205F091A30580E00995CC2331F081E719
:1021800095E00E94A90C81E001C080E0DF91CF9131
:102190000895EF92FF920F931F93CF93DF93F82E42
:1021A000062FE42E152FE0918605F091870581E733
:1021B00095E00995080FCE2DD12F10E0299122230B
:1021C00049F0402F6F2D81E795E00E94040DF80E35
:1021D000180FF4CF812FDF91CF911F910F91FF90B6
:1021E000EF9008958091750590917605009709F418
:1021F00037C020918805FC01211107C03596E49174
:10220000E0938905FC013C960FC0213039F43F96DC
:10221000E491E0938905FC01709606C03D96E49137
:10222000E0938905FC013E96E491E0938A05809154
:102230008905082E000C990B20918A05821B9109B3
:1022400027FD939520918B05203441F0829FC0019A
:10225000112426E0969587952A95E1F780938C05C1
:1022600008958F929F92AF92BF92CF92DF92EF929A
:10227000FF920F931F93CF93DF93E82EF62EC42F78
:102280005901262F220F220F220F042F44E1682F1D
:1022900081E795E00E94E20C882351F1CC5ED4E105
:1022A0008F2C912CCD1721F165010F2D1E2D0023B0
:1022B000D9F0F601849160917305709174051093C3
:1022C0008D05D0938E051092900580938F052DE893
:1022D00035E04BE381E795E00E94B90BFFEFCF1AA1
:1022E000DF0A0150185FE3CFA80CB91CDF5FDACF1B
:1022F000DF91CF911F910F91FF90EF90DF90CF90E2
:10230000BF90AF909F908F900895809173059091AA
:1023100074058C50914061F480910E0190910F01F1
:10232000909374058093730581E795E00C94A90C54
:102330000895809173059091740521E08C30920787
:1023400051F090930F0180930E018CE091E09093F7
:102350007405809373058DEB9BE090930D01809342
:102360000C0181E795E00C94A90C0C94D60F8F9288
:102370009F92AF92BF920F931F93CF93DF93CDB7EE
:10238000DEB7A1970FB6F894DEBF0FBECDBF19A27E
:10239000423008F44AE08E010F5D1F4F842E912CCD
:1023A000A12CB12CA50194010E94601FE62FB90158
:1023B000CA0101501109EA3014F4E05D01C0E95C82
:1023C000D801EC93232B242B252B61F7C8010E9405
:1023D000D60FA1960FB6F894DEBF0FBECDBFDF912A
:1023E000CF911F910F91BF90AF909F908F900895C4
:1023F000CF9384EA8093BC0061E080E80E943213AE
:10240000882359F08091B900887F883041F080316D
:1024100031F061E082E00E942B13C0E01DC088E72C
:102420008093BB0084E88093BC0062E080E80E9457
:102430003213882391F380912E04C82FC27081FD3E
:102440000AC08091B900887F883129F062E082E07B
:102450000E942B1301C0C1E08C2FCF910895FC0185
:1024600030819281930F92832181921760F494813D
:102470009F5F94838381830F821710F08FEF820F09
:10248000838381E0089580E00895FC0112828081B9
:1024900081508383148208952EE93FE0009729F04C
:1024A000F9013197F1F70197F9CF089584E9809305
:1024B000BC0064E080E10C943213CF938093BB00A6
:1024C00084E88093BC0063E080E80E943213C82F48
:1024D000882389F080912E04C82FC27081FD0AC024
:1024E0008091B900887F883229F063E082E00E9401
:1024F0002B1301C0C1E08C2FCF91089510923406A8
:10250000089580932E041092B90084FF02C08CE0DD
:1025100001C088E48093B8000C947E12CF92DF92C1
:10252000EF92FF920F931F93CF93DF936C017A0189
:102530008B01C0E0D0E0CE15DF0581F0D8016D91B0
:102540008D01D601ED91FC910190F081E02DC60145
:102550000995892B11F02196EECF7E01C701DF91FD
:10256000CF911F910F91FF90EF90DF90CF90089542
:10257000CF93DF93FC0123A5222379F0EC010E9485
:10258000F811811102C080E009C08EA1811180E4A0
:102590000E945D128823B9F31BA681E0DF91CF91E1
:1025A00008950F931F93CF93C42F89016330C1F017
:1025B00050F4613081F0623009F048C0FC0146A35C
:1025C00021E023A743C0663011F1673079F165300F
:1025D00009F03CC00EC0FC0186A50E94811236C0E5
:1025E000FC0116A221E023A7411130C00E9456121F
:1025F0002DC00E94B812811104C00E94561280E0C2
:1026000026C08C2F0E945D12811120C0F6CF0E943F
:10261000B812882391F3CC23C9F0F80181918F017E
:102620000E945D12882349F3C150F5CF0E94B81271
:10263000882319F3CC2351F0F80184910E945D1294
:10264000882329F00F5F1F4FC150F4CF81E0CF9155
:102650001F910F91089590913406911102C08093BB
:10266000340608951F93CF93DF9300D0CDB7DEB724
:1026700020ED37E03A8329839091BC00982399F4A8
:1026800029813A81232B51F480912E04182F127046
:1026900081FD09C081E00E942B1306C029813A8187
:1026A00021503109E7CF11E0812F0F900F90DF917A
:1026B000CF911F910895DB011496ED91FC91159730
:1026C00020E030E065E00994DB011496ED91FC9187
:1026D000159720E030E062E00994DB011496ED915B
:1026E000FC91159720E030E063E00994CF92DF92EF
:1026F000EF92FF920F931F93CF93DF938C017B0197
:102700006A0180E0F601C49181110BC0CF3F09F44A
:102710004CC04C2FB701C8010E945B13811143C00C
:1027200049C0CF3F11F44FEFF5CFCE3F09F444C07D
:10273000C03FC8F5C03E38F04C2F4F70B701C801FC
:102740000E94641330C0C03D38F04C2F4F70B70169
:10275000C8010E946D1327C0C03CF8F0D701149641
:10276000ED91FC91159720E030E040E064E0C80175
:102770000995C295C07FCE5FD0E0CE010E944C1279
:10278000D7011496ED91FC91159720E030E041E0DF
:1027900064E0C8010995CE0104C0C7FD04C08C2FB8
:1027A00090E00E944C1280E001C081E0BFEFCB1AA4
:1027B000DB0AA8CF80E001C081E0DF91CF911F91BB
:1027C0000F91FF90EF90DF90CF900895833081F0CC
:1027D00028F4813099F08230A1F008958730A9F073
:1027E0008830B9F08430D1F4809180008F7D03C0AF
:1027F000809180008F7780938000089584B58F77D3
:1028000002C084B58F7D84BD08958091B0008F771C
:1028100003C08091B0008F7D8093B00008951F9316
:10282000CF93DF93282F30E0F901E452F04F8491E9
:10283000F901E853F04FD491F901EC54F04FC491F1
:10284000CC23C1F0162F81110E94E613EC2FF0E08B
:10285000EE0FFF1FE655F04FA591B4919FB7F89486
:10286000111104C08C91D095D82302C0EC91DE2BBD
:10287000DC939FBFDF91CF911F910895CF93DF939A
:1028800090E0FC01E853F04F2491FC01EC54F04F30
:102890008491882361F190E0880F991FFC01E05634
:1028A000F04FC591D491FC01E655F04FA591B4913C
:1028B000611109C09FB7F89488812095822388838D
:1028C000EC912E230BC0623061F49FB7F89488819D
:1028D000322F309583238883EC912E2B2C939FBF2E
:1028E00006C08FB7F894E8812E2B28838FBFDF9125
:1028F000CF9108951F920F920FB60F9211242F932C
:102900003F938F939F93AF93BF9380912B069091AA
:102910002C06A0912D06B0912E063091330623E0AF
:10292000230F2D3720F40196A11DB11D05C026E807
:10293000230F0296A11DB11D2093330680932B0611
:1029400090932C06A0932D06B0932E0680912F060F
:1029500090913006A0913106B09132060196A11DEA
:10296000B11D80932F0690933006A0933106B0934B
:102970003206BF91AF919F918F913F912F910F9010
:102980000FBE0F901F901895EF92FF920F931F9319
:10299000CF93DF93EC017B018A01888199810097B5
:1029A00029F02A813B8124173507F8F4B8016F5FBD
:1029B0007F4F0E94CF20009759F0998388831B8313
:1029C0000A832C813D81232B81F4FC0110820DC0F0
:1029D00088819981009711F00E94462019821882FF
:1029E0001D821C821B821A8207C01D830C83B701C3
:1029F000888199810E94A321CE01DF91CF911F91FF
:102A00000F91FF90EF900895CF93DF93EC01FB01BE
:102A100086179707B1F0608171816115710529F002
:102A2000448155810E94C4140CC08881998100970B
:102A300011F00E944620198218821D821C821B827E
:102A40001A82CE01DF91CF910895FC01808191819E
:102A50000C944620FC01118210821382128215828E
:102A600014826115710551F0FB0101900020E9F716
:102A70003197AF01461B570B0C94C41408957894FA
:102A800084B5826084BD84B5816084BD85B5826073
:102A900085BD85B5816085BD80916E008160809324
:102AA0006E0010928100809181008260809381008D
:102AB000809181008160809381008091800081609D
:102AC000809380008091B10084608093B1008091F8
:102AD000B00081608093B00080917A008460809320
:102AE0007A0080917A00826080937A0080917A00E7
:102AF000816080937A0080917A00806880937A0068
:102B00001092C10010929C0310929B0310925203EA
:102B10001092730310929A0381E0809399031092AC
:102B2000940361E082E10E940F1461E083E10E945E
:102B30000F148091B9008E7F8093B9008091B90005
:102B40008D7F8093B90088E48093B80085E48093FA
:102B5000BC0088EE93E0A0E0B0E080934603909341
:102B60004703A0934803B09349038AE79AE0909300
:102B7000450380934403809170008E7F80937000A2
:102B80008091B0008C7F8093B0008091B100877FEE
:102B90008093B1008091B6008F7D8093B6008091C4
:102BA00070008D7F809370008091B100846080936D
:102BB000B1008091B1008C7F8093B10086E090E0FD
:102BC00090934B0380934A0310924D0310924E034F
:102BD00010924F031092500310924C0380914A03BD
:102BE00090914B038093B20080917000816080933C
:102BF00070001092BE031092BD031092E203109277
:102C0000E1030E94AC0F0E94980F20EA822E25E17A
:102C1000922EAA24AA94BA2CC1E0D0E03BE8232E3D
:102C200038E0332E87E0682E712C90E1492E512C2C
:102C30001FE08FB7F894C0902B06D0902C06E09040
:102C40002D06F0902E068FBFC092BF03D092C00316
:102C5000E092C103F092C20389E495E00E94630F01
:102C600084E695E00E94630F82E595E00E94630F81
:102C70008BE595E00E94630F1092EA031092E9033E
:102C80001092E803909149058091E703992351F14F
:102C900081110BC081E08093E703C092E303D092DF
:102CA000E403E092E503F092E6038091E7038823D2
:102CB00089F18091E3039091E403A091E503B09141
:102CC000E603A7019601281B390B4A0B5B0BDA01BF
:102CD000C901813D9740A105B105E4F081E08093F1
:102CE000E80318C08823B1F08091E3039091E403D6
:102CF000A091E503B091E603A7019601281B390BCB
:102D00004A0B5B0BDA01C90123333105410551053B
:102D10000CF003C68091EA03882371F18091E203ED
:102D2000882369F08091E103882319F01092E10370
:102D300023C081E08093E1030E94980F1DC0809121
:102D4000E003811110C08091DF0381110CC081E08C
:102D50008093E003C092DB03D092DC03E092DD03BA
:102D6000F092DE0309C08091020190910301019667
:102D700090930301809302018091E903882309F471
:102D80007CC08091E003882309F440C08091020157
:102D9000909103018330910549F164F481309105EC
:102DA00009F1029709F069C081E08093DA0310927B
:102DB000D90321C08430910509F1059709F05DC060
:102DC0001092E00381E08093DF03D0930301C0936E
:102DD0000201C092DB03D092DC03E092DD03F092AB
:102DE000DE034BC021E02093E2032EC01092DA03F1
:102DF00081E08093D9031092D80337C01092DA0390
:102E00001092D90381E08093D8032FC08091DF0313
:102E1000882399F1809102019091030183309105FB
:102E2000E1F04CF48130910579F0029731F581E0C1
:102E30008093D7031AC08430910599F00597E9F47F
:102E400081E08093E00313C01092E0031092DF034F
:102E5000909303018093020110C081E08093D60318
:102E600004C07092BE036092BD031092E003109202
:102E7000DF03D0930301C09302018091E203882312
:102E800009F417C18091E103811113C1E091BD03E1
:102E9000F091BE03E031F10508F0DCC0EC5CFF4FBF
:102EA0000C94A11F0E94AC0F2FB7F89480912B06B1
:102EB00090912C06A0912D06B0912E062FBF8093E5
:102EC000D2039093D303A093D403B093D5038091FE
:102ED000BD039091BE0301969093BE038093BD0302
:102EE000D0930101C09300018091CE039091CF0354
:102EF000A091D003B091D1038059984EAF4FBF4FEE
:102F00008093CE039093CF03A093D003B093D103CB
:102F1000B0C081EF94E00E949F0E8091FD04882351
:102F200009F479C08CE195E00E94570F8091640507
:102F3000882309F49EC081E08093FE049AC08FEC40
:102F400094E00E949F0E8091DB04882359F08091C9
:102F50006405882319F080E495E056C081E08093F1
:102F6000DC0487C080E495E00E944C0F82C08DEAAB
:102F700094E00E949F0E8091B904882349F18EE26B
:102F800095E00E94570F8091D603811103C0809174
:102F9000520502C080915B05882321F08091D70300
:102FA000882399F085E295E02FC08BE894E00E9499
:102FB0009F0E80919704882359F08EE295E00E943D
:102FC000570F80915B05882369F385E295E0CCCFAC
:102FD00085E295E00E944C0F8EE295E0C5CF89E630
:102FE00094E00E949F0E80917504E5CF87E494E001
:102FF0000E949F0E80915304882349F087E395E057
:103000000E94570F8CE195E00E94570F32C087E372
:1030100095E00E944C0F8CE195E0A6CF47E050E090
:1030200066E371E081E494E00E94C41448E050E05B
:103030006EE371E08BE394E00E94C4148091CC03B2
:103040009091CD0318161906A4F05092BE03409239
:10305000BD030FC01092BE031092BD031092E20395
:103060001092E1030E94AC0F0E94980F81E08093C0
:10307000CB038091BF039091C003A091C103B09195
:10308000C203C090D203D090D303E090D403F09059
:10309000D503BC01CD016C197D098E099F09A501DD
:1030A00094010E94821F28583F4F3093CD032093F4
:1030B000CC038091BF039091C003A091C103B09154
:1030C000C2034091C7035091C8036091C903709136
:1030D000CA03841B950BA60BB70B84369105A1057B
:1030E000B1050CF489C381E08093510388E6809395
:1030F000C303109252031092730360E08FE294E0D6
:103100000E940D0990917303913208F044C08091A0
:103110009A038111FCCF82E080939A0381E080932F
:1031200099038FEF809398031092970390939603DF
:10313000E3E5F3E0A4E7B3E080E0981721F0219104
:103140002D938F5FFACF1092950380919503806D38
:103150008093950380919403813061F410929403DD
:10316000809195038093BB008091BC0083FDF8CFD4
:1031700085EC01C085EE8093BC0080919A0382307B
:10318000E1F3809198038F3F31F080919803803272
:1031900011F08091980310925203109273031092D1
:1031A000510380919A038111FCCF81E080939A03AF
:1031B000809399039FEF909398031092970396E062
:1031C000909396038093950380919503806D8093EF
:1031D000950380919403813061F41092940380915F
:1031E00095038093BB008091BC0083FDF8CF85ECF4
:1031F00001C085EE8093BC0080919A038130E1F399
:1032000080919703873018F49091970301C097E05D
:10321000A4E7B3E0EDE9F3E080E0891721F02D9118
:1032200021938F5FFACF10929C0380939B038FE2D0
:1032300094E00E94C408982F9695969596959E7056
:10324000292F220F220F920F8F70890F8093C403B2
:103250008FE294E00E94C408982F92959F708F701F
:103260005AE0959F800D11248093C5038FE294E06E
:103270000E94C408982F9695969596959670292F3A
:10328000220F220F920F8F70890F8093C6038091B7
:10329000AA05811105C081E08093AA050E949C10B7
:1032A000E0907305F0907405E091A205F091A305FC
:1032B00082E00995E091A205F091A30581E00995CE
:1032C00020E030E044E1B70181E795E00E94B90BCE
:1032D00024EA35E047E1B70181E795E00E94B90BA8
:1032E000E091A205F091A30580E009950FEF809190
:1032F0007505909176058858904061F048E850E057
:1033000050937605409375050E94F2103092870520
:103310002092860551E0509388050E94F21080911A
:103320007C05803329F400939105009392050BC02E
:10333000883221F0823021F483E003C08FEF01C096
:1033400081E08093910587E898E0909387058093CA
:1033500086058091E803882349F00E94991147E48B
:1033600051E060E088E10E94C9103FC00E949911BD
:103370001093A8051092A9058091C6038A3048F4DD
:103380008DE892E00E94B51195E19093A805109206
:10339000A9056091C60370E080E090E04AE00E94D9
:1033A000B7118091C40380FF06C04AE451E06FEF7B
:1033B0008BE10E94C91021E22093A8051092A90573
:1033C0008091C5038A3048F48DE892E00E94B511DF
:1033D00037E23093A8051092A9056091C50370E00B
:1033E00080E090E04AE00E94B7110E948511809130
:1033F000E203882309F472C08091000190910101D9
:103400008230910561F18330910509F457C001972D
:1034100009F0A7C10E9499111092A8058AE0809333
:10342000A905409145045091460460914104709172
:1034300042048DE695E00E948E121092A80584E168
:103440008093A90540913F045091400460913B0452
:1034500070913C048DE695E00E948E1270C10E942E
:1034600099114CE451E06AE089E00E94C910109380
:10347000A80584E18093A905C090CC03D090CD032A
:103480000D2C000CEE08FF08F7FE0EC06DE28DE675
:1034900095E00E94060E66277727CB016C197D09FF
:1034A0008E099F094AE003C04AE0C701B6010E94A5
:1034B000B71145E551E064E181E23FC18091130518
:1034C000882331F024EF3DE04CE268E085E046C11E
:1034D00024E93CE04CE268E08CE340C18091E003E9
:1034E000882309F441C08091020190910301833047
:1034F000910521F13CF481309105A9F0029709F47E
:1035000091C080C08430910521F1059709F07AC0FF
:103510000E94991140E951E06AE080E00E94C910E0
:103520004BE951E008C10E94991149E551E06AE078
:1035300080E00E94C91044E651E0FDC00E9499114C
:1035400049E551E06AE080E00E94C9104AE751E095
:10355000F2C00E94991149E551E06AE080E00E94C2
:10356000C91045E851E0E7C08091DF03882309F4E2
:103570004EC080910201909103018330910561F169
:1035800084F481309105E9F00297E1F50E949911E8
:1035900046EA51E06AE080E00E94C9104CEB51E03D
:1035A000CAC08430910519F1059761F50E949911FF
:1035B00048EE51E06AE080E00E94C91043EF51E01C
:1035C000BAC00E94991146EA51E06AE080E00E9488
:1035D000C91041EB51E0AFC00E94991146EA51E099
:1035E0006AE080E00E94C91047EC51E0A4C00E944C
:1035F000991142ED51E06AE080E00E94C9104DED62
:1036000051E099C0D0930301C0930201AEC0209154
:10361000DA038091000190910101222371F0823040
:10362000910521F50E94991149E551E06AE080E099
:103630000E94C9104FE651E07EC02091D903222399
:1036400071F08230910591F40E94991143E152E0AA
:103650006AE080E00E94C9104EE152E06CC0209107
:10366000D803222379F182309105D9F08330910576
:1036700019F1019709F075C00E9499111092A805DF
:103680008AE08093A9058EEF91E00E94B511109217
:10369000A80584E18093A90588E092E00E94B51115
:1036A0004EC00E94991143E152E06AE080E00E941E
:1036B000C91049E252E03FC022EC3BE04AE265E03B
:1036C0008CE24CC02091CB03222371F08130910514
:1036D00091F40E94991144E352E06AE080E00E9474
:1036E000C9104FE352E027C02091E103222399F053
:1036F0008130910529F00297A1F522EC3BE02BC027
:103700000E9499114AE452E06AE080E00E94C910E8
:1037100045E552E010C08130910519F0029791F013
:1037200020C00E94991140E652E06AE080E00E94C9
:10373000C9104BE652E064E180E00E94C9100E948B
:10374000851113C080911305882319F02AEC39E004
:1037500002C022ED37E04AE26CE08AE00E943111BB
:1037600004C0D0930101C0930001E0917F05F09166
:103770008005309719F081E795E00995E090730591
:10378000F0907405E091A205F091A30582E00995FF
:10379000E091A205F091A30581E0099520E030E0D9
:1037A00045E1B70181E795E00E94B90BD82E882347
:1037B00041F024EA35E047E1B70181E795E00E9456
:1037C000B90BE091A205F091A30580E00995D11015
:1037D0008ECD2FB7F89480912B0690912C06A09156
:1037E0002D06B0912E062FBF8093C7039093C80378
:1037F000A093C903B093CA038091BF039091C00303
:10380000A091C103B091C2034091CE035091CF0368
:103810006091D0037091D103841B950BA60BB70B5D
:1038200088389341A105B105E4F02FB7F894809151
:103830002B0690912C06A0912D06B0912E062FBF3D
:103840008093CE039093CF03A093D003B093D10382
:103850008091000190910101019690930101809364
:1038600000018091BF039091C003A091C103B0916A
:10387000C2034091DB035091DC036091DD03709142
:10388000DE03841B950BA60BB70B80319742A10575
:10389000B10544F01092E0031092DF03D0930301CE
:1038A000C09302018091DA03882369F08091C603F6
:1038B0008F3049F48091C503873029F481E08093EB
:1038C000E2031092DA038091D903882369F0809192
:1038D000C603843149F48091C503853229F481E01F
:1038E0008093E2031092D9038091D803882369F072
:1038F0008091C603823049F48091C503853229F452
:1039000081E08093E2031092D80380E090E0892B5D
:1039100009F48FC90E94000085C91092E703BA011B
:10392000A9014556510961097109433853406105A0
:10393000710538F42091E203211103C021E02093A6
:10394000EA03895E9340A109B1098F399F40A1051F
:10395000B10508F0DFC98091E2038111DBC981E084
:103960008093E903D7C98BE394E00E94251581E495
:1039700094E00E94251587E494E00E94CB0F89E62D
:1039800094E00E94CB0F8BE894E00E94CB0F8DEA6D
:1039900094E00E94CB0F8FEC94E00E94CB0F81EF5C
:1039A00094E00E94CB0F84E195E00E9425158DE103
:1039B00095E00E94251586E295E00E9425158FE28C
:1039C00095E00E94251588E395E00E94251581E485
:1039D00095E00E9425158AE495E00E94251583E56F
:1039E00095E00E9425158CE595E00E94251585E659
:1039F00095E00C942515AF92BF92CF92DF92EF9293
:103A0000FF920F931F93CF93DF93CDB7DEB72C9721
:103A10000FB6F894DEBF0FBECDBF109232041092E5
:103A2000310488EE93E0A0E0B0E0809333049093FB
:103A30003404A0933504B093360482E291E090936D
:103A4000300480932F041092700510926F0582E36A
:103A500091E090936E0580936D051092A8051092E9
:103A6000A9051092AA05109276051092750510927C
:103A700078051092770510927A0581E08093790598
:103A800082E280937B051092800510927F05E4E925
:103A9000F5E082EA95E02FEF21938E179F07E1F77B
:103AA00081E0809391052BE838E0309387052093DF
:103AB0008605809388051092890510928A0580E416
:103AC00080938B0510928C0586E598E09093A30572
:103AD0008093A20582E191E0909374058093730531
:103AE00082E180939F050E949C1082E391E0909375
:103AF0006E0580936D0566E772E0CE0101960E9427
:103B00002A1520E0AE014F5F5F4F62E070E084E66F
:103B100095E00E947310CE0101960E94251561E880
:103B200072E0CE0101960E942A1522E0AE014F5F9D
:103B30005F4F63E070E08BE595E00E947310CE016B
:103B400001960E9425156FE872E0CE0101960E9451
:103B50002A1522E0AE014F5F5F4F64E070E082E51E
:103B600095E00E947310CE0101960E9425156DE923
:103B700072E0CE0101960E942A1522E0AE014F5F4D
:103B80005F4F65E070E089E495E00E947310CE011C
:103B900001960E9425156AEA72E0CE0101960E9404
:103BA0002A15AE014F5F5F4F68E070E080E495E05A
:103BB0000E944910CE0101960E94251561EB72E02A
:103BC000CE0101960E942A15AE014F5F5F4F69E05A
:103BD00070E087E395E00E944910CE0101960E94B3
:103BE00025156DEB72E0CE0101960E942A15AE01FB
:103BF0004F5F5F4F6AE070E08EE295E00E944910EF
:103C0000CE0101960E9425156AEC72E0CE01019664
:103C10000E942A15AE014F5F5F4F6BE070E085E2B6
:103C200095E00E944910CE0101960E94251560EE94
:103C300072E0CE0101960E942A15AE014F5F5F4FE0
:103C40006CE070E08CE195E00E944910CE01019695
:103C50000E9425156FEE72E0CE0101960E942A1592
:103C6000AE014F5F5F4F6DE070E083E195E00E9431
:103C70004910CE0101960E9425156DEF72E0CE012C
:103C800007960E942A1567EE72E0CE0101960E9407
:103C90002A15CE0107965C0106976C01E12CF12CE8
:103CA0000AE010E020E030E040E050E0BA0181EFAF
:103CB00094E00E94E80FC6010E942515C5010E94EC
:103CC000251566E073E0C5010E942A1561E173E0E5
:103CD000C6010E942A150AE010E020E030E04AE028
:103CE00050E060E070E08FEC94E00E94E80FC601C5
:103CF0000E942515C5010E9425156EE371E0C501DE
:103D00000E942A156DE173E0C6010E942A158CE31A
:103D1000E82EF12C00E010E098014AE050E060E06D
:103D200070E08DEA94E00E94E80FC6010E9425151C
:103D3000C5010E94251564E273E0C5010E942A15A1
:103D40006AE273E0C6010E942A159FE0E92EF12C79
:103D500000E010E0980148E750E060E070E08BE898
:103D600094E00E94E80FC6010E942515C5010E943B
:103D7000251562E373E0C5010E942A156AE273E02B
:103D8000C6010E942A1500E010E098014AE050E0C8
:103D900060E070E089E694E00E94E80FC6010E94AE
:103DA0002515C5010E9425156EE371E0C5010E942D
:103DB0002A1567E373E0C6010E942A15EE24E394F6
:103DC000F12C00E010E098014AE050E060E070E083
:103DD00087E494E00E94E80FC6010E942515C50102
:103DE0000E9425156EEF71E081E494E00E942A158F
:103DF00068E072E08BE394E00E942A152C960FB6DF
:103E0000F894DEBF0FBECDBFDF91CF911F910F9110
:103E1000FF90EF90DF90CF90BF90AF9008950E94F9
:103E2000511FA59F900DB49F900DA49F800D911DD3
:103E3000112408952F923F924F925F926F927F923A
:103E40008F929F92AF92BF92CF92DF92EF92FF92AA
:103E50000F931F93CF93DF93CDB7DEB7CA1BDB0B56
:103E60000FB6F894DEBF0FBECDBF09942A883988FB
:103E700048885F846E847D848C849B84AA84B98402
:103E8000C884DF80EE80FD800C811B81AA81B9810E
:103E9000CE0FD11D0FB6F894DEBF0FBECDBFED0122
:103EA0000895A29FB001B39FC001A39F700D811D13
:103EB0001124911DB29F700D811D1124911D089533
:103EC000A1E21A2EAA1BBB1BFD010DC0AA1FBB1F1E
:103ED000EE1FFF1FA217B307E407F50720F0A21B90
:103EE000B30BE40BF50B661F771F881F991F1A94FD
:103EF00069F760957095809590959B01AC01BD0127
:103F0000CF010895052E97FB1EF400940E94991F7F
:103F100057FD07D00E94601F07FC03D04EF40C949D
:103F2000991F50954095309521953F4F4F4F5F4FCA
:103F3000089590958095709561957F4F8F4F9F4F15
:103F40000895EE0FFF1F0590F491E02D09940E9453
:103F5000511FB7FF0895821B930B08950F931F9372
:103F6000CF93DF938230910510F482E090E0E091EE
:103F70003706F091380620E030E0A0E0B0E030975E
:103F800019F1408151810281138148175907C8F006
:103F90008417950769F4109731F012960C931297D5
:103FA00013961C9327C0009337061093380622C03F
:103FB0002115310519F04217530718F49A01BD0174
:103FC000EF01DF01F801DBCF21153105F9F0281BE6
:103FD000390B2430310580F48A819B81611571058C
:103FE00021F0FB019383828304C090933806809371
:103FF0003706FE01329644C0FE01E20FF31F8193A3
:10400000919322503109398328833AC02091350693
:1040100030913606232B41F420911A0130911B0177
:1040200030933606209335062091180130911901FE
:104030002115310541F42DB73EB740911C01509137
:104040001D01241B350BE0913506F0913606E21771
:10405000F307A0F42E1B3F0B2817390778F0AC01AB
:104060004E5F5F4F2417350748F04E0F5F1F509388
:104070003606409335068193919302C0E0E0F0E06C
:10408000CF01DF91CF911F910F910895CF93DF93CF
:10409000009709F481C0FC01329713821282A0912B
:1040A0003706B0913806109781F420813181820F54
:1040B000931F20913506309136062817390751F5A0
:1040C000F0933606E093350667C0ED0120E030E05E
:1040D000CE17DF0740F44A815B819E0141155105EF
:1040E000F1F0EA01F5CFD383C28340815181840F7F
:1040F000951FC817D90759F488819981840F951F96
:104100000296918380838A819B8193838283211588
:10411000310529F4F0933806E09337063DC0E901F4
:10412000FB83EA8349915991C40FD51FEC17FD0712
:1041300061F480819181840F951F0296E901998332
:104140008883828193819B838A83E0E0F0E01296EA
:104150008D919C911397009719F0FD01DC01F7CF29
:104160008D919C9111979D012E5F3F4F820F931F60
:1041700020913506309136062817390769F43097B3
:1041800029F4109238061092370602C01382128268
:10419000B0933606A0933506DF91CF910895A0E045
:1041A000B0E0E5EDF0E20C941E1FEC01009721F465
:1041B000CB010E94AE1FB4C0FC01E60FF71F9C01AB
:1041C00022503109E217F30708F4A8C0D9010D9174
:1041D0001C91119706171707B0F00530110508F468
:1041E0009BC0C80104978617970708F495C0025032
:1041F0001109061B170B019311936D937C93CF014B
:104200000E94462089C05B01A01AB10A4C01800EB1
:10421000911EA0913706B0913806612C712CE12CCB
:10422000F12C109709F446C08D919C911197A81517
:10423000B905B1F56C0142E0C40ED11CCA14DB040F
:1042400078F14C018A189B08640142E0C40ED11C2D
:104250001296BC9012971396AC91B5E0CB16D10490
:1042600040F0B282A38391828082D9016D937C93C6
:1042700009C00E5F1F4F800F911FF901918380834A
:10428000EB2DFA2FE114F10431F0D7011396FC93D2
:10429000EE93129741C0F0933806E09337063CC086
:1042A0006816790608F43C017D0112960D90BC91C8
:1042B000A02DB7CF809135069091360688169906C5
:1042C000E1F466167706C8F48091180190911901FF
:1042D000009741F48DB79EB740911C0150911D018C
:1042E000841B950BE817F907C8F4F0933606E093A2
:1042F0003506F901718360830FC0CB010E94AE1FA8
:104300007C01009759F0A801BE010E949A21CE01BC
:104310000E944620C70104C0CE0102C080E090E0A8
:10432000CDB7DEB7EEE00C943A1F81E090E0F89450
:104330000C94AA21FB01DC0102C001900D924150B6
:104340005040D8F70895FB01DC0101900D92002048
:10435000E1F7089517E0C9EFD7E004C0FE010E941D
:0E436000A11F2196CA3FD107C9F7F894FFCFDD
:10436E0001000100084000000080AB05BD0B0000FD
:10437E0000003E090401D112000039068000000041
:10438E0000000D09E008D808C408B508B4080000FC
:10439E000000060E8E125365636861676500656ED8
:1043AE0020636F757273004F4B003A0066696E2082
:1043BE0064616E73006D696E0020206465706172B9
:1043CE007420200020696D6D656469617420002081
:1043DE0020612020313568202000202061203230DD
:1043EE0068333020002020612030326833302000C6
:1043FE00207265676C6167657320002064752063A9
:10440E0079636C65200020206C61766167652020E1
:10441E000020206E6F726D616C20200020696E741A
:10442E00656E736966200020202065636F20202052
:10443E002000202072696E6361676520002073651D
:10444E00756C656D656E740020207265746F757283
:10445E0020200020206175206D656E752000204C97
:10446E006574277320676F002077617368696E67C4
:10447E00202100206465706172742020200020616C
:10448E002020323068333020002061202030326806
:10449E00333020004469736820636C65616E0020C0
:1044AE00492077696E2021202000204379636C65B6
:1044BE00202020200020656E20706175736520001D
:1044CE002020496E736572742020002020436F698E
:1044DE006E202120200070726573736F7374617487
:1044EE0000746865726D6F7374617420353000747A
:1044FE006865726D6F737461742036350073746104
:10450E00727420656E67696E65004556206561752B
:10451E00004D6F746575722063757665004D6F740E
:10452E00657572206379636C650052657369737487
:10453E00616E6365206465206368617566666500FB
:10454E004D6F7465757220766964616E676500687B
:10455E0065617274626561745F4C454400646520E8
:10456E006C27656175006465206C612063757665E6
:10457E000072656D706C697373616765006C61764E
:10458E0061676500636F7572740072696E6361674F
:10459E0065006C6F6E6700726567656E657261743B
:0445AE00696F6E00C3
:00000001FF
